:100000000C9466000C9485000C9485000C9485007B
:100010000C9485000C9485000C9485000C9485004C
:100020000C9485000C9485000C9485000C9485003C
:100030000C9485000C9485000C9485000C948E041F
:100040000C94C1040C9485000C9485000C948500DC
:100050000C9477040C9485000C9485000C94850016
:100060000C9485000C9425010C9485000C9485005B
:100070000C9485000C9485000C9485000C948500EC
:100080000C9485000C9485000C9485000C949804C5
:100090000C9485000C9485000C9485000C948500CC
:1000A0000C9485000C9485000C9485000C948500BC
:1000B0000C9485000C94A2040C9485000C9485008B
:1000C0000C9485000C9485000C94B70411241FBE79
:1000D000CFEFD1E2DEBFCDBF12E0A0E0B2E0EAE6B2
:1000E000F8E100E00BBF02C007900D92A03FB107FE
:1000F000D9F716E0A0EFB2E001C01D92A034B1071D
:10010000E1F70E94C70A0C94330C0C940000109283
:10011000C5008093C400A1ECB0E08C9180618C9309
:100120008C9188608C93E2ECF0E080818660808323
:1001300010926603109267038C9180688C930895E7
:10014000FC0107C08091C00085FFFCCF81918093A6
:10015000C6006150B9F70895982F8091C00085FFBF
:10016000FCCF80E38093C6008091C00085FFFCCF68
:1001700088E78093C6008091C00085FFFCCFE92FFF
:10018000E295EF70F0E0E050FE4F80818093C60072
:100190008091C00085FFFCCFE92FF0E0EF70F07098
:1001A000E050FE4F80818093C6000895982F809183
:1001B000C00085FFFCCF9093C6000895282F809142
:1001C000C00085FFFCCF822F64E60E94270C805D73
:1001D0008093C6008091C00085FFFCCF822F64E62B
:1001E0000E94270C892F6AE00E94270C805D809373
:1001F000C6008091C00085FFFCCF822F6AE00E947C
:10020000270C905D9093C600089580EF92E00895CA
:1002100080916703882311F080916603089580918F
:10022000C1008F778093C10010926603109267031C
:1002300002C08091C6008091C00087FDFACF8091F6
:10024000C10080688093C10008951F920F920FB67D
:100250000F920BB60F9211242F938F939F93AF930E
:10026000BF93EF93FF939091C6008091660384370C
:1002700028F5A82FB0E0282F2F5F9A30C9F480917D
:10028000C1008F778093C100A051BD4F9C93E22F96
:10029000F0E0E051FD4F1082822F8F5FE82FF0E0F9
:1002A000E051FD4F10828F5F8093660381E00EC0A6
:1002B000A051BD4F9C93209366030AC08091C1005A
:1002C0008F778093C10081E08093660380936703FA
:1002D000FF91EF91BF91AF919F918F912F910F90CF
:1002E0000BBE0F900FBE0F901F901895DF93CF930A
:1002F0000F92CDB7DEB710926903109268038FB7E3
:100300008983F89410926B0310926C0310926D0322
:1003100010926E0310926F0310927003109271038B
:10032000109273031092720310927503109274036B
:1003300089818FBF249A259A269A579A84B187601B
:1003400084B985B1836085B980E58CBD81E08DBDC0
:1003500083E480938100B59AEFE6F0E080818160CC
:10036000808380818062808380E00F90CF91DF91D5
:100370000895E5E6F0E08081806180830895E5E6F8
:10038000F0E080818F7E80831092A00085E08093D2
:10039000A10080EE8093A40083EE8093A50081E00D
:1003A000809372008FB780688FBF089580916A0331
:1003B000089510926A030895DF93CF930F92CDB7FB
:1003C000DEB78FB78983F89410926B0310926C0399
:1003D00010926D0310926E0310926F0310927003CF
:1003E00010927103109273031092720310927503AE
:1003F0001092740389818FBF0F90CF91DF91089580
:1004000080916B030895DF93CF930F92CDB7DEB742
:100410008FB78983F89410926B0389818FBF0F90F7
:10042000CF91DF91089580916C030895DF93CF936E
:100430000F92CDB7DEB78FB78983F89410926C0313
:1004400089818FBF0F90CF91DF91089580916D03C7
:100450000895DF93CF930F92CDB7DEB78FB789831F
:10046000F89410926D0389818FBF0F90CF91DF9127
:10047000089580917403909175030895DF93CF934D
:100480000F92CDB7DEB72FB72983F89490937503F9
:100490008093740389818FBF0F90CF91DF9108956E
:1004A000DF93CF930F92CDB7DEB78FB78983F894E0
:1004B000109275031092740389818FBF0F90CF91B2
:1004C000DF91089580916E030895DF93CF930F928B
:1004D000CDB7DEB78FB78983F89410926E03898108
:1004E0008FBF0F90CF91DF9108958091720390910B
:1004F00073030895DF93CF930F92CDB7DEB72FB775
:100500002983F894909373038093720389818FBF3A
:100510000F90CF91DF910895DF93CF930F92CDB7D6
:10052000DEB78FB78983F894109273031092720329
:1005300089818FBF0F90CF91DF91089580916F03D4
:100540000895DF93CF930F92CDB7DEB78FB789832E
:10055000F89410926F0389818FBF0F90CF91DF9134
:100560000895809170030895DF93CF930F92CDB7D4
:10057000DEB78FB78983F8941092700389818FBF9B
:100580000F90CF91DF910895809171030895DF93CB
:10059000CF930F92CDB7DEB78FB78983F8941092BF
:1005A000710389818FBF0F90CF91DF910895DF9301
:1005B000CF930F92CDB7DEB780689FB79983F89439
:1005C00028988EBD0DB407FEFDCF8EB58EBD0DB43F
:1005D00007FEFDCF8EB5289A99819FBF0F90CF91CE
:1005E000DF910895DF93CF930F92CDB7DEB7806C84
:1005F0009FB79983F89428988EBD0DB407FEFDCF60
:100600008EB56EBD0DB407FEFDCF8EB5289A8981DB
:100610008FBF0F90CF91DF910895FF920F931F939B
:10062000062FF42E0E94D702082310E002C0159571
:100630000795FA94E2F7802F1F910F91FF9008958C
:10064000EF92FF920F931F93DF93CF930F92CDB74B
:10065000DEB7182F062FE42EF22E0E94D702282F85
:10066000106C8FB78983F89428981EBD0DB407FECF
:10067000FDCF8EB58F2D90E002C0880F991FEA94B0
:10068000E2F7802300950223802B8EBD0DB407FE78
:10069000FDCF8EB5289A89818FBF0F90CF91DF91C2
:1006A0001F910F91FF90EF900895DF93CF930F92DA
:1006B000CDB7DEB7FC018FB78983F894289880E224
:1006C0008EBD0DB407FEFDCF8EB58EBD0DB407FEF9
:1006D000FDCF9EB5892F83508D3760F590839EBDE9
:1006E0000DB407FEFDCFDF01119620E030E08EB59E
:1006F0008EBD8D932827022E2295207F2025032E44
:10070000322F22952F700226269532272327220F7B
:10071000220F220F20250DB407FEFDCF915039F78F
:100720008EB5E058FF4F8193289A232B41F481E046
:10073000808306C0289A1082E058FF4F11921082E1
:1007400089818FBF0F90CF91DF910895DF93CF9371
:100750000F92CDB7DEB7FC016F778FB78983F8941E
:10076000289880E68EBD0DB407FEFDCF8EB56EBD18
:100770000DB407FEFDCF8EB581918EBD61500DB4D5
:1007800007FEFDCF8EB56623B9F7289A89818FBF02
:100790000F90CF91DF910895DF93CF930F92CDB754
:1007A000DEB7982FFA018FB78983F89428981EBC7A
:1007B0000DB407FEFDCF8EB59EBD0DB407FEFDCF77
:1007C0008EB51EBC0DB407FEFDCF8EB58083615083
:1007D00011F03196F6CF289A89818FBF0F90CF9173
:1007E000DF910895DF93CF930F92CDB7DEB7982FA7
:1007F000FA018FB78983F894289880E48EBD0DB4F0
:1008000007FEFDCF8EB59EBD0DB407FEFDCF8EB5A4
:1008100081918EBD0DB407FEFDCF8EB56150C1F73D
:10082000289A89818FBF0F90CF91DF910895DF9330
:10083000CF930F92CDB7DEB7982FDB0182E08A9578
:10084000F1F78FB78983F894289880E48EBD0DB4B2
:1008500007FEFDCF9EBD0DB407FEFDCF8C918EBD72
:100860000DB407FEFDCF942FFD0107C081818EBD21
:100870000DB407FEFDCF8EB581939150B9F741506D
:10088000FD01E40FF11D1EBC0DB407FEFDCF8EB5BA
:100890008083289A89818FBF0F90CF91DF9108952F
:1008A000DF93CF930F92CDB7DEB7209168033091DD
:1008B000690340E050E0A901332722278FB78983DD
:1008C000F894809184009091850069816FBFA0E0C9
:1008D000B0E0282B392B4A2B5B2B56954795379543
:1008E0002795B901CA010F90CF91DF9108951F920A
:1008F0000F920FB60F9211248F939F9380916803EC
:1009000090916903019690936903809368039F9186
:100910008F910F900FBE0F901F9018951F920F92FE
:100920000FB60F9211240F900FBE0F901F901895C5
:100930001F920F920FB60F9211240F900FBE0F90BF
:100940001F9018951F920F920FB60F9211248F933C
:1009500080EE8093A40083EE8093A50081E08093D5
:100960006A038F910F900FBE0F901F9018951F92E2
:100970000F920FB60F9211240F900FBE0F901F9081
:1009800018951F920F920FB60F920BB60F9211246B
:100990000F931F932F933F934F935F936F937F9387
:1009A0008F939F93AF93BF93EF93FF93DF93CF9377
:1009B0000F92CDB7DEB78091680390916903A0E0F4
:1009C000B0E09C0111270027809184009091850060
:1009D000A0E0B0E0082B192B2A2B3B2B28988FE89E
:1009E0008EBD36952795179507950DB407FEFDCF5B
:1009F0008EB58EBD0DB407FEFDCF9EB5289A92FF31
:100A00001DC080916E038F5F80936E03E09172032F
:100A1000F0917303309709F45FC0289880E28EBD8F
:100A20000DB407FEFDCF8EB58EBD0DB407FEFDCF14
:100A30004EB5289AC901B80109954EC093FF10C060
:100A400080916D038F5F80936D03E0917403F0914B
:100A50007503309709F440C0C901B80109953CC03D
:100A600096FF06C080916C038F5F80936C0334C047
:100A700091FF06C0809170038F5F809370032CC03C
:100A800090FF06C0809171038F5F8093710324C033
:100A900097FF1DC08EE00E94D702982F8FB78983E1
:100AA000F89428988EEC8EBD0DB407FEFDCF8EB560
:100AB0009F779EBD0DB407FEFDCF8EB5289A898124
:100AC0008FBF80916B038F5F80936B0305C0809114
:100AD0006F038F5F80936F030F90CF91DF91FF9132
:100AE000EF91BF91AF919F918F917F916F915F91A6
:100AF0004F913F912F911F910F910F900BBE0F902F
:100B00000FBE0F901F9018950895AC0184E860E126
:100B10000E94CC0308951F93CF93DF93EB01A9E7C5
:100B2000B3E0FC0180E101900D928150E1F710915A
:100B3000890380917703882349F083E868E773E0AD
:100B400042E10E9417041092770306C084E869E727
:100B500073E041E10E941704209741F0DE01E9E7CC
:100B6000F3E080E101900D928150E1F71093890349
:100B70008AE38A95F1F7DF91CF911F9108951F9332
:100B800080911102882319F02AE933E002C02AE893
:100B900033E01091780380E180937803A9E7B3E014
:100BA000F90101900D928150E1F783E861E148E796
:100BB00053E00E94F2031093780381E0809377035F
:100BC0001F910895FF920F931F93DF93CF93CDB79B
:100BD000DEB760970FB6F894DEBF0FBECDBF9C01A5
:100BE000F62E042F0097E9F01092760389E08093A7
:100BF0001102AAE8B3E0F90180E101900D92815061
:100C0000E1F780E180937803A9E7B3E0F90101906F
:100C10000D928150E1F783E861E148E753E00E94DB
:100C2000F203002321F0083009F063C017C080915F
:100C30001102883009F04BC080E180937803A9E766
:100C4000B3E0EAE8F3E001900D928150E1F783E828
:100C500061E148E753E00E94F20339C0809111023C
:100C60008830A9F110E110937803809176038823EE
:100C7000E1F41092780380E88093890381E0809307
:100C80007703CE01019660E070E00E948B0510931F
:100C9000780383E861E048E753E00E94F20384E8C8
:100CA00060E14AE953E00E94CC03A9E7B3E0EAE936
:100CB000F3E080E101900D928150E1F783E861E17A
:100CC00048E753E00E94F20381E0809376030093AB
:100CD0001102FF2019F080E2F81659F4802F8F29B5
:100CE0008093780380688093890381E08093770301
:100CF00001C080E060960FB6F894DEBF0FBECDBF96
:100D0000CF91DF911F910F91FF9008958EE268E0DF
:100D100043E00E940D0308951F932D988AEB91E004
:100D20000197F1F72D9882E08A95F1F72D9A10E05E
:100D300081E06FE140E00E940D031F5F1B3011F462
:100D400085E805C08830A1F780933F0680E01F91B9
:100D5000089581E06FE140E00E940D0308950F9334
:100D60001F93CF93DF93082FEB01142F85508B3700
:100D700010F082E431C081E06FE140E00E940D0399
:100D8000893111F084E428C00E9429022C9A2C9801
:100D9000CE01602F0E94A6030E9426028823E1F361
:100DA00082E060EE45E00E940D038823A1F08330CD
:100DB00011F08EE401C08DE4112371F081E06FE148
:100DC00040E00E940D038931C9F711500E942902A9
:100DD0002C9A2C98E1CF80E4DF91CF911F910F9155
:100DE00008951F93CF93DF93182FEB0187FF02C065
:100DF00082E410C081E06FE140E00E940D03893081
:100E000011F084E407C02C9A2C98CE01612F0E9427
:100E1000A60380E4DF91CF911F9108951C9902C031
:100E200080E408952C9886E596E00197F1F781E03B
:100E30006FE140E00E940D03883091F383E4089550
:100E400083E067E040E00E940D03089581E160E2E5
:100E500045E00E940D03882311F08BE408958AE495
:100E6000089581E160E144E00E940D03089581E16D
:100E70006FE040E00E940D030895CF93DF93EC01F3
:100E800081E06FE140E00E940D03863021F0813067
:100E900011F084E407C086E06FE140E00E940D039A
:100EA000888380E4DF91CF91089589E06FE040E08E
:100EB0000E940D03089588E060E645E00E940D035E
:100EC00008958EE268E043E020E00E942003089548
:100ED000882329F084E060E245E021E004C084E05A
:100EE00060E245E020E00E94200308952C988EE007
:100EF0008A95F1F782E06FE140E023E00E94200351
:100F000082E08A95F1F708951C9B02C080E4089561
:100F10000E94760781E06FE140E00E940D03883077
:100F200011F083E408952C9A80E408950F931F93A1
:100F3000082F883051F0863041F0893031F0863109
:100F400021F0893111F082E44BC01C9B02C084E483
:100F500047C081E06FE140E00E940D03182F8150EF
:100F6000823008F43AC01131C1F11231B1F10117E8
:100F7000B1F1083019F40E94760726C0093139F41E
:100F8000163191F482E06FE140E029E008C00631BB
:100F900059F4193149F482E06FE140E026E00E9403
:100FA000200382E08A95F1F782E06FE140E0202F94
:100FB0000E942003183029F48BE491E00197F1F7A7
:100FC00003C082E08A95F1F781E06FE140E00E9482
:100FD0000D03801721F083E403C085E401C080E4A1
:100FE0001F910F91089581E06FE140E00E940D0391
:100FF0008850823010F084E4089588E160E847E08A
:1010000021E00E9420038DE38A95F1F788E160E8F2
:1010100047E00E940D03882311F480E4089583E4DF
:1010200008950F931F93082F162F663010F082E457
:101030001BC083E067E040E00E940D03811799F038
:10104000002329F483E068E043E021E004C083E06A
:1010500068E043E020E00E94200383E067E040E096
:10106000212F0E94200380E41F910F9108951F9368
:10107000162F603110F082E418C01C9B02C084E47B
:1010800014C0882329F081E160E144E021E004C03C
:1010900081E160E144E020E00E94200381E16FE013
:1010A00040E0212F0E94200380E41F9108951F93A8
:1010B000282F162F833098F4603188F41C9B02C0CF
:1010C00084E40EC088E060E645E00E94200389E0E9
:1010D0006FE040E0212F0E94200380E401C082E401
:1010E0001F9108950F931F93082F162F1C9B02C06A
:1010F00084E42AC08CE260EF44E020E00E942003F8
:10110000212F30E02873307083E0359527958A953C
:10111000E1F78CE26EE041E00E942003212F22954E
:101120002695269523708FE26FE040E00E94200311
:101130008DE2602F0E94F20217708EE267E040E0BD
:10114000212F0E94200380E41F910F910895AF92F8
:10115000BF92CF92DF92EF92FF920F931F938C0179
:101160007C010894E11CF11C8BE2F80160810E9473
:10117000F20267010894C11CD11C8AE2F801618166
:101180000E94F20256010894A11CB11C89E2F701E9
:1011900061810E94F20275010894E11CF11C88E251
:1011A000F60161810E94F20287010F5F1F4F87E203
:1011B000F50161810E94F20286E2F70161810E94DD
:1011C000F20285E2F80161810E94F20284E20F5F7F
:1011D0001F4FF80161810E94F2021F910F91FF9051
:1011E000EF90DF90CF90BF90AF9008951F93682F3E
:1011F000192F80E20E94F20281E2612F0E94F20226
:101200001F9108951F93682F192F82E20E94F20206
:1012100083E2612F0E94F2021F91089583E060E350
:1012200044E020E00E94200381E061E00E94110878
:101230008EE260EC46E020E00E9420038EE260E255
:1012400045E021E00E9420038CE060E847E021E0D7
:101250000E94200384E062E041E021E00E9420033C
:101260008EE068E00E94F20284E060E245E021E066
:101270000E94200384E060E446E021E00E94200315
:1012800008951F93982F162F1C9B02C084E40BC057
:1012900085E0692F0E94F20285E060E847E0212F97
:1012A0000E94200380E41F910895EF92FF920F9314
:1012B0001F937C018BE20E94D702F70181938F017B
:1012C0008AE20E94D702F701818378010894E11C29
:1012D000F11C89E20E94D702F801818387010F5F28
:1012E0001F4F88E20E94D702F7018183780108949A
:1012F000E11CF11C87E20E94D702F801818387017B
:101300000F5F1F4F86E20E94D702F701818385E2BB
:101310000E94D702F801818384E20E94D7020F5F06
:101320001F4FF80181831F910F91FF90EF90089557
:101330001F9381E20E94D702182F81E20E94D702F8
:10134000512F40E0282F30E0242B352BC9011F916D
:1013500008951F9383E20E94D702182F82E20E9411
:10136000D702512F40E0282F30E0242B352BC90124
:101370001F91089581E06FE140E00E940D038930E4
:1013800011F084E4089586E00E9496078034A9F461
:1013900088E060E847E021E00E94200382E091E0DD
:1013A0000197F1F781E00E94D70287FF06C086FD12
:1013B00002C088E4089587E4089583E40895CF93F4
:1013C000DF93EC0181E06FE140E00E940D03863085
:1013D00021F0813011F084E40DC087E060E00E94CC
:1013E000F20282E091E00197F1F787E00E94D702D4
:1013F000888380E4DF91CF9108951F93182F8CE0AC
:101400000E94D702682F607C612B8CE00E94F20260
:10141000112311F0143059F486E163E040E023E039
:101420000E94200387E164E042E020E00AC086E1F8
:1014300063E040E022E00E94200387E164E042E0B4
:1014400021E00E94200380E01F91089585E00E9422
:10145000D702089583E10E94D70208951F93182FA1
:1014600084E167E040E021E00E942003812F8E5656
:101470008D3310F082E422C01C9B02C084E41EC0A5
:1014800083E10E94D7028117C1F083E1612F0E949E
:10149000F20281E06FE140E00E940D03863011F01E
:1014A000893021F484E191E00197F1F783E10E9412
:1014B000D702811711F083E401C080E41F910895E1
:1014C0000F931F930CEA13E0C8010197F1F70E94F4
:1014D0008C0682E06FE140E023E00E942003C80117
:1014E0000197F1F781E06FE140E00E940D03883041
:1014F00011F083E418C08CE10E94D7028093AA0304
:10150000873081F48DE10E94D702813059F48EE159
:101510000E94D7028F3131F48EE06FEF0E94F20209
:1015200080E401C081E41F910F91089581E06FE193
:1015300040E00E940D03893011F084E408958BE1AE
:1015400060E847E021E00E9420038AE160E847E08C
:1015500021E00E9420030E94C70284E191E00197EC
:10156000F1F70E94C402882381F08BE160E847E034
:101570000E940D03882349F48AE160E847E00E9455
:101580000D03882311F480E4089583E40895FF9205
:101590000F931F93CF93DF9381E080933E0681E604
:1015A0008093AC0388E88093AD038FEA8093AF0308
:1015B0008EEB8093B0038DEA8093B1038AEB809326
:1015C000B2038CED8093B3038CEA8093B4032BE2D7
:1015D00034E0309334062093330681EB95E090930A
:1015E000360680933506309338062093370690935D
:1015F0003A068093390684E080933B0610923C06BD
:1016000010923D0683E00E9487000E9476018823A5
:1016100059F50E940E090E94600A803429F58EE671
:101620000E942E0A803401F580E00E94FD0980ECC2
:1016300061E00E9441098CED9CEA0E94F6088FEA65
:101640009EEB0E94020980E00E9461078AEE62EE32
:101650000E94720881E00E94680789EE9BE00E9468
:101660003E028FE00E94D70286E10E9496078034F6
:1016700029F082E192E067E20E94A00078945F98EE
:101680001092AE03E5EBF3E081E4819394E0E9315D
:10169000F907D9F70E94BF010BE214E0C1EBD5E0D6
:1016A00084E0F82E40913C06442309F46FC02E9844
:1016B0002091390630913A06809135069091360690
:1016C0002817390749F48091330690913406909396
:1016D0003A068093390606C02E573F4F30933A069C
:1016E00020933906F89480913B068F5F80933B06E8
:1016F000415040933C0678948091AB03893C18F0AC
:101700001092AB0303C08F5F8093AB03E091390667
:10171000F0913A068285823469F489E392E067E6C3
:101720000E94A0008091AB0381500E94DE001092C5
:10173000AB032BC080EA92E06AE00E94A000E09137
:101740003906F0913A0660816B50CF010A960E94EB
:10175000A0008AEA92E066E00E94A000E0913906CB
:10176000F0913A06E058FF4F80810E94AC0080EB78
:1017700092E06AE10E94A0008AEC92E06FE00E9491
:10178000A0008091AB030E94DE002E9A80913D065E
:10179000882309F487CFF894109334060093330616
:1017A000D0933606C093350610933806009337065B
:1017B000D0933A06C0933906F0923B0610923C064D
:1017C00010923D0689ED92E066E10E94A0007894B7
:1017D00069CF80913E068823C9F180913B0688231A
:1017E00021F481E080933D06089580913706909121
:1017F00038060E945503E0913706F0913806EF57FE
:10180000FF4F8081E158F040882301F18091350637
:1018100090913606E817F90749F4809133069091C4
:101820003406909338068093370606C0EE57FF4F74
:10183000F0933806E093370680913B068150809301
:101840003B0680913C068F5F80933C060895991B70
:1018500079E004C0991F961708F0961B881F7A95A7
:0A186000C9F780950895F894FFCFB2
:10186A0030313233343536373839414243444546CC
:10187A0000090D0A4120666174616C206572726FFD
:10188A00722E2053797374656D206D75737420629E
:10189A00652072657365742E000D0A32303020702F
:1018AA0061636B6167657320686173207265636940
:1018BA00657665642066696E6973682121210D0A5F
:1018CA0047697665206120706F7765722D6F6E208B
:1018DA00726573657420746F2072657374617274B3
:1018EA002121210D0A547820323030207061636B37
:1018FA00616765732C20726563656976656420008B
:10190A000D0A2D2D2D3E52783A004C51493A2000AD
:10191A000D0A3C2D2D2D5278204D65737361676534
:10192A0020436F756E7465723A000D0A527820630F
:10193A006F756E7465723A20000D0A52582042750E
:10194A0066666572204F766572666C6F7721000055
:00000001FF
