:100000000C9466000C9485000C9485000C9485007B
:100010000C9485000C9485000C9485000C9485004C
:100020000C9485000C9485000C9485000C9485003C
:100030000C9485000C9485000C9485000C94B304FA
:100040000C94E6040C9485000C9485000C948500B7
:100050000C949C040C9485000C9485000C948500F1
:100060000C9485000C944A010C9485000C94850036
:100070000C9485000C9485000C9485000C948500EC
:100080000C9485000C9485000C9485000C94BD04A0
:100090000C9485000C9485000C9485000C948500CC
:1000A0000C9485000C9485000C9485000C948500BC
:1000B0000C9485000C94C7040C9485000C94850066
:1000C0000C9485000C9485000C94DC0411241FBE54
:1000D000CFEFD1E2DEBFCDBF1CE0A0E0B2E0E8E5AB
:1000E000F9E300E00BBF02C007900D92A039B10701
:1000F000D9F714E1A0E9BCE001C01D92A936B1070F
:10010000E1F70E940D160C94AA1C0C9400001092AA
:10011000C5008093C400A1ECB0E08C9180618C9309
:100120008C9188608C93E2ECF0E080818660808323
:100130001092060D1092070D8C9180688C93089593
:10014000FC0107C08091C00085FFFCCF81918093A6
:10015000C6006150B9F70895FC0107C08091C00046
:1001600085FFFCCF9093C600319690819923B1F71B
:100170000895982F8091C00085FFFCCF80E3809385
:10018000C6008091C00085FFFCCF88E78093C60041
:100190008091C00085FFFCCFE92FE295EF70F0E081
:1001A000E050FE4F80818093C6008091C00085FFA3
:1001B000FCCFE92FF0E0EF70F070E050FE4F80814F
:1001C0008093C6000895982F8091C00085FFFCCFD2
:1001D0009093C6000895282F8091C00085FFFCCF22
:1001E000822F64E60E949E1C805D8093C6008091F1
:1001F000C00085FFFCCF822F64E60E949E1C892FE1
:100200006AE00E949E1C805D8093C6008091C000C1
:1002100085FFFCCF822F6AE00E949E1C905D909328
:10022000C600089580E99CE00895AC0120E030E02C
:10023000FA01E20FF31FD901A057B34F8C918083CD
:100240002F5F3F4F2531310599F708958091070DB4
:10025000882311F08091060D08958091C1008F7759
:100260008093C1001092060D1092070D02C080917C
:10027000C6008091C00087FDFACFE0E9FCE0119252
:100280008CE0E53AF807D9F78091C1008068809347
:10029000C10008951F920F920FB60F920BB60F92E6
:1002A00011242F938F939F93AF93BF93EF93FF935B
:1002B0009091C6008091060D843728F5A82FB0E0F4
:1002C000282F2F5F9A30C9F48091C1008F778093D7
:1002D000C100A057B34F9C93E22FF0E0E057F34FDB
:1002E0001082822F8F5FE82FF0E0E057F34F1082EB
:1002F0008F5F8093060D81E00EC0A057B34F9C9393
:100300002093060D0AC08091C1008F778093C100B1
:1003100081E08093060D8093070DFF91EF91BF91CF
:10032000AF919F918F912F910F900BBE0F900FBEA9
:100330000F901F901895DF93CF930F92CDB7DEB734
:100340001092090D1092080D8FB78983F8941092BE
:100350000B0D10920C0D10920D0D10920E0D1092AF
:100360000F0D1092100D1092110D1092130D10928E
:10037000120D1092150D1092140D89818FBF249AC1
:10038000259A269A579A84B1876084B985B183608B
:1003900085B980E58CBD81E08DBD83E480938100CB
:1003A000B59AEFE6F0E08081816080838081806291
:1003B000808380E00F90CF91DF910895E5E6F0E033
:1003C0008081806180830895E5E6F0E080818F7E02
:1003D00080831092A00085E08093A10080EE80933E
:1003E000A40083EE8093A50081E0809372008FB714
:1003F00080688FBF089580910A0D089510920A0DAC
:100400000895DF93CF930F92CDB7DEB78FB789836F
:10041000F89410920B0D10920C0D10920D0D10927D
:100420000E0D10920F0D1092100D1092110D1092D2
:10043000130D1092120D1092150D1092140D89814A
:100440008FBF0F90CF91DF91089580910B0D08958C
:10045000DF93CF930F92CDB7DEB78FB78983F89430
:1004600010920B0D89818FBF0F90CF91DF9108956E
:1004700080910C0D0895DF93CF930F92CDB7DEB727
:100480008FB78983F89410920C0D89818FBF0F90DC
:10049000CF91DF91089580910D0D0895DF93CF9353
:1004A0000F92CDB7DEB78FB78983F89410920D0DF8
:1004B00089818FBF0F90CF91DF9108958091140DA6
:1004C0009091150D0895DF93CF930F92CDB7DEB7BE
:1004D0002FB72983F8949093150D8093140D89817B
:1004E0008FBF0F90CF91DF910895DF93CF930F923D
:1004F000CDB7DEB78FB78983F8941092150D10929F
:10050000140D89818FBF0F90CF91DF910895809155
:100510000E0D0895DF93CF930F92CDB7DEB78FB74F
:100520008983F89410920E0D89818FBF0F90CF911F
:10053000DF9108958091120D9091130D0895DF932E
:10054000CF930F92CDB7DEB72FB72983F89490934E
:10055000130D8093120D89818FBF0F90CF91DF9182
:100560000895DF93CF930F92CDB7DEB78FB789830E
:10057000F8941092130D1092120D89818FBF0F9075
:10058000CF91DF91089580910F0D0895DF93CF9360
:100590000F92CDB7DEB78FB78983F89410920F0D05
:1005A00089818FBF0F90CF91DF9108958091100DB9
:1005B0000895DF93CF930F92CDB7DEB78FB78983BE
:1005C000F8941092100D89818FBF0F90CF91DF9119
:1005D00008958091110D0895DF93CF930F92CDB7B9
:1005E000DEB78FB78983F8941092110D89818FBF80
:1005F0000F90CF91DF910895DF93CF930F92CDB7F6
:10060000DEB780689FB79983F89428988EBD0DB4A3
:1006100007FEFDCF8EB58EBD0DB407FEFDCF8EB5A6
:10062000289A99819FBF0F90CF91DF910895DF9312
:10063000CF930F92CDB7DEB7806C9FB79983F894B4
:1006400028988EBD0DB407FEFDCF8EB56EBD0DB4DE
:1006500007FEFDCF8EB5289A89818FBF0F90CF916D
:10066000DF910895FF920F931F93062FF42E0E949F
:10067000FC02082310E002C015950795FA94E2F7F2
:10068000802F1F910F91FF900895EF92FF920F938B
:100690001F93DF93CF930F92CDB7DEB7182F062F9E
:1006A000E42EF22E0E94FC02282F106C8FB7898353
:1006B000F89428981EBD0DB407FEFDCF8EB58F2D82
:1006C00090E002C0880F991FEA94E2F7802300951A
:1006D0000223802B8EBD0DB407FEFDCF8EB5289A68
:1006E00089818FBF0F90CF91DF911F910F91FF9064
:1006F000EF900895DF93CF930F92CDB7DEB7FC0153
:100700008FB78983F894289880E28EBD0DB407FED8
:10071000FDCF8EB58EBD0DB407FEFDCF9EB5892FE2
:1007200083508D3760F590839EBD0DB407FEFDCFDD
:10073000DF01119620E030E08EB58EBD8D93282725
:10074000022E2295207F2025032E322F22952F70F6
:100750000226269532272327220F220F220F20253B
:100760000DB407FEFDCF915039F78EB5E058FF4F1D
:100770008193289A232B41F481E0808306C0289A34
:100780001082E058FF4F1192108289818FBF0F9025
:10079000CF91DF910895DF93CF930F92CDB7DEB75E
:1007A000FC016F778FB78983F894289880E68EBD17
:1007B0000DB407FEFDCF8EB56EBD0DB407FEFDCFA7
:1007C0008EB581918EBD61500DB407FEFDCF8EB503
:1007D0006623B9F7289A89818FBF0F90CF91DF9157
:1007E0000895DF93CF930F92CDB7DEB7982FFA011C
:1007F0008FB78983F89428981EBC0DB407FEFDCFEF
:100800008EB59EBD0DB407FEFDCF8EB51EBC0DB4DA
:1008100007FEFDCF8EB58083615011F03196F6CF83
:10082000289A89818FBF0F90CF91DF910895DF9330
:10083000CF930F92CDB7DEB7982FFA018FB7898388
:10084000F894289880E48EBD0DB407FEFDCF8EB5D8
:100850009EBD0DB407FEFDCF8EB581918EBD0DB44A
:1008600007FEFDCF8EB56150C1F7289A89818FBFF1
:100870000F90CF91DF910895DF93CF930F92CDB773
:10088000DEB7982FDB0182E08A95F1F78FB7898375
:10089000F894289880E48EBD0DB407FEFDCF9EBD70
:1008A0000DB407FEFDCF8C918EBD0DB407FEFDCFBC
:1008B000942FFD0107C081818EBD0DB407FEFDCFD1
:1008C0008EB581939150B9F74150FD01E40FF11DB0
:1008D0001EBC0DB407FEFDCF8EB58083289A89819A
:1008E0008FBF0F90CF91DF910895DF93CF930F9239
:1008F000CDB7DEB72091080D3091090D40E050E0F2
:10090000A901332722278FB78983F8948091840027
:100910009091850069816FBFA0E0B0E0282B392B52
:100920004A2B5B2B5695479537952795B901CA01F8
:100930000F90CF91DF9108951F920F920FB60F92F3
:1009400011248F939F938091080D9091090D01962A
:100950009093090D8093080D9F918F910F900FBE7A
:100960000F901F9018951F920F920FB60F9211249F
:100970000F900FBE0F901F9018951F920F920FB6F9
:100980000F9211240F900FBE0F901F9018951F9279
:100990000F920FB60F9211248F9380EE8093A400D4
:1009A00083EE8093A50081E080930A0D8F910F90D4
:1009B0000FBE0F901F9018951F920F920FB60F92B7
:1009C00011240F900FBE0F901F9018951F920F9239
:1009D0000FB60F920BB60F9211240F931F932F9304
:1009E0003F934F935F936F937F938F939F93AF93B7
:1009F000BF93EF93FF93DF93CF930F92CDB7DEB703
:100A00008091080D9091090DA0E0B0E09C011127A4
:100A100000278091840090918500A0E0B0E0082B31
:100A2000192B2A2B3B2B28988FE88EBD36952795BE
:100A3000179507950DB407FEFDCF8EB58EBD0DB48D
:100A400007FEFDCF9EB5289A92FF1DC080910E0D26
:100A50008F5F80930E0DE091120DF091130D309782
:100A600009F45FC0289880E28EBD0DB407FEFDCF6B
:100A70008EB58EBD0DB407FEFDCF4EB5289AC901C7
:100A8000B80109954EC093FF10C080910D0D8F5F86
:100A900080930D0DE091140DF091150D309709F430
:100AA00040C0C901B80109953CC096FF06C08091BD
:100AB0000C0D8F5F80930C0D34C091FF06C08091A8
:100AC000100D8F5F8093100D2CC090FF06C0809199
:100AD000110D8F5F8093110D24C097FF1DC08EE014
:100AE0000E94FC02982F8FB78983F89428988EEC87
:100AF0008EBD0DB407FEFDCF8EB59F779EBD0DB4A4
:100B000007FEFDCF8EB5289A89818FBF80910B0D8E
:100B10008F5F80930B0D05C080910F0D8F5F8093C9
:100B20000F0D0F90CF91DF91FF91EF91BF91AF919A
:100B30009F918F917F916F915F914F913F912F91F5
:100B40001F910F910F900BBE0F900FBE0F901F9033
:100B500018950895AC0184E860E10E94F1030895BE
:100B60001F93CF93DF93EB01A9E1BDE0FC0180E18E
:100B700001900D928150E1F71091290D8091170D90
:100B8000882349F083E868E17DE042E10E943C046B
:100B90001092170D06C084E869E17DE041E10E94F2
:100BA0003C04209741F0DE01E9E1FDE080E10190A5
:100BB0000D928150E1F71093290D8AE38A95F1F7A0
:100BC000DF91CF911F9108951F9380911102882387
:100BD00019F02AE33DE002C02AE23DE01091180D31
:100BE00080E18093180DA9E1BDE0F90101900D921B
:100BF0008150E1F783E861E148E15DE00E9417047C
:100C00001093180D81E08093170D1F910895FF92A6
:100C10000F931F93DF93CF93CDB7DEB760970FB6D7
:100C2000F894DEBF0FBECDBF9C01F62E042F0097B7
:100C3000E9F01092160D89E080931102AAE2BDE05E
:100C4000F90180E101900D928150E1F780E18093FC
:100C5000180DA9E1BDE0F90101900D928150E1F775
:100C600083E861E148E15DE00E941704002321F080
:100C7000083009F063C017C080911102883009F074
:100C80004BC080E18093180DA9E1BDE0EAE2FDE0F0
:100C900001900D928150E1F783E861E148E15DE068
:100CA0000E94170439C0809111028830A9F110E127
:100CB0001093180D8091160D8823E1F41092180DF1
:100CC00080E88093290D81E08093170DCE01019675
:100CD00060E070E00E94B0051093180D83E861E0B9
:100CE00048E15DE00E94170484E860E14AE35DE0CA
:100CF0000E94F103A9E1BDE0EAE3FDE080E101909B
:100D00000D928150E1F783E861E148E15DE00E94E6
:100D1000170481E08093160D00931102FF2019F053
:100D200080E2F81659F4802F8F298093180D80687F
:100D30008093290D81E08093170D01C080E06096BB
:100D40000FB6F894DEBF0FBECDBFCF91DF911F91DC
:100D50000F91FF9008958EE268E043E00E94320315
:100D600008951F932D988AEB91E00197F1F72D9844
:100D700082E08A95F1F72D9A10E081E06FE140E082
:100D80000E9432031F5F1B3011F485E805C08830D4
:100D9000A1F78093041480E01F91089581E06FE132
:100DA00040E00E94320308950F931F93CF93DF9387
:100DB000082FEB01142F88EE93E028EB30E0F901C7
:100DC0003197F1F70197D9F7802F85508B3710F0C5
:100DD00082E431C081E06FE140E00E94320389315A
:100DE00011F084E428C00E944E022C9A2C98CE0167
:100DF000602F0E94CB030E944B028823E1F382E024
:100E000060EE45E00E9432038823A1F0833011F0A8
:100E10008EE401C08DE4112371F081E06FE140E0C8
:100E20000E9432038931C9F711500E944E022C9A58
:100E30002C98E1CF80E4DF91CF911F910F9108951D
:100E40001F93CF93DF93182FEB0187FF02C082E43B
:100E500010C081E06FE140E00E943203893011F060
:100E600084E407C02C9A2C98CE01612F0E94CB03FA
:100E700080E4DF91CF911F9108951C9912C00FC09B
:100E8000CA010197F1F721503040D1F781E06FE1BD
:100E900040E00E943203883011F083E4089580E43A
:100EA00008952C9824EF31E048EB50E0E9CF83E03F
:100EB00067E040E00E943203089581E160E245E08E
:100EC0000E943203882311F08BE408958AE4089588
:100ED00081E160E144E00E943203089581E16FE026
:100EE00040E00E9432030895CF93DF93EC0181E04C
:100EF0006FE140E00E943203863021F0813011F032
:100F000084E407C086E06FE140E00E9432038883FA
:100F100080E4DF91CF91089589E06FE040E00E9486
:100F20003203089588E060E645E00E9432030895A8
:100F30008EE268E043E020E00E94450308958823A4
:100F400029F084E060E245E021E004C084E060E252
:100F500045E020E00E94450308952C988EE08A9594
:100F6000F1F782E06FE140E023E00E94450382E078
:100F70008A95F1F708951C9B02C080E408950E94B1
:100F8000AD0781E06FE140E00E943203883011F04C
:100F900083E408952C9A80E408950F931F93082FFB
:100FA000883051F0863041F0893031F0863121F0BF
:100FB000893111F082E44BC01C9B02C084E447C01D
:100FC00081E06FE140E00E943203182F81508230AF
:100FD00008F43AC01131C1F11231B1F10117B1F188
:100FE000083019F40E94AD0726C0093139F41631D2
:100FF00091F482E06FE140E029E008C0063159F445
:10100000193149F482E06FE140E026E00E94450397
:1010100082E08A95F1F782E06FE140E0202F0E94A4
:101020004503183029F48BE491E00197F1F703C0F0
:1010300082E08A95F1F781E06FE140E00E9432039F
:10104000801721F083E403C085E401C080E41F9190
:101050000F91089581E06FE140E00E9432038850D3
:10106000823010F084E4089588E160E847E021E0F0
:101070000E9445038DE38A95F1F788E160E847E037
:101080000E943203882311F480E4089583E40895D4
:101090000F931F93082F162F663010F082E41BC0A9
:1010A00083E067E040E00E943203811799F000235B
:1010B00029F483E068E043E021E004C083E068E0D5
:1010C00043E020E00E94450383E067E040E0212FF9
:1010D0000E94450380E41F910F9108951F93162FDE
:1010E000603110F082E418C01C9B02C084E414C07C
:1010F000882329F081E160E144E021E004C081E13E
:1011000060E144E020E00E94450381E16FE040E0BF
:10111000212F0E94450380E41F9108951F93282FDB
:10112000162F833098F4603188F41C9B02C084E44D
:101130000EC088E060E645E00E94450389E06FE06C
:1011400040E0212F0E94450380E401C082E41F910A
:1011500008950F931F93082F162F1C9B02C084E441
:101160002AC08CE260EF44E020E00E944503212F7A
:1011700030E02873307083E0359527958A95E1F744
:101180008CE26EE041E00E944503212F22952695D6
:10119000269523708FE26FE040E00E9445038DE2C8
:1011A000602F0E94170317708EE267E040E0212F46
:1011B0000E94450380E41F910F910895AF92BF9262
:1011C000CF92DF92EF92FF920F931F938C017C01DD
:1011D0000894E11CF11C8BE2F80160810E94170366
:1011E00067010894C11CD11C8AE2F80161810E9448
:1011F000170356010894A11CB11C89E2F701618113
:101200000E94170375010894E11CF11C88E2F601A5
:1012100061810E94170387010F5F1F4F87E2F5016D
:1012200061810E94170386E2F70161810E94170322
:1012300085E2F80161810E94170384E20F5F1F4F6E
:10124000F80161810E9417031F910F91FF90EF90A9
:10125000DF90CF90BF90AF9008951F93682F192F04
:1012600080E20E94170381E2612F0E9417031F9101
:1012700008951F93682F192F82E20E94170383E2BB
:10128000612F0E9417031F91089583E060E344E0FB
:1012900020E00E94450381E061E00E9448088EE260
:1012A00060EC46E020E00E9445038EE260E245E00B
:1012B00021E00E9445038CE060E847E021E00E94C5
:1012C000450384E062E041E021E00E9445038EE0B6
:1012D00068E00E94170384E060E245E021E00E949C
:1012E000450384E060E446E021E00E944503089560
:1012F0001F93982F162F1C9B02C084E40BC085E01F
:10130000692F0E94170385E060E847E0212F0E94C3
:10131000450380E41F910895EF92FF920F931F936E
:101320007C018BE20E94FC02F70181938F018AE22B
:101330000E94FC02F701818378010894E11CF11CF2
:1013400089E20E94FC02F801818387010F5F1F4F31
:1013500088E20E94FC02F701818378010894E11C75
:10136000F11C87E20E94FC02F801818387010F5F74
:101370001F4F86E20E94FC02F701818385E20E94F2
:10138000FC02F801818384E20E94FC020F5F1F4F80
:10139000F80181831F910F91FF90EF9008951F93A3
:1013A00081E20E94FC02182F80E20E94FC02512F71
:1013B00040E0282F30E0242B352BC9011F910895E0
:1013C0001F9383E20E94FC02182F82E20E94FC021B
:1013D000512F40E0282F30E0242B352BC9011F91DD
:1013E000089581E06FE140E00E943203893011F0FE
:1013F00084E4089586E00E94CD078034A9F488E053
:1014000060E847E021E00E94450382E091E0019717
:10141000F1F781E00E94FC0287FF06C086FD02C052
:1014200088E4089587E4089583E40895CF93DF93D3
:10143000EC0181E06FE140E00E943203863021F050
:10144000813011F084E40DC087E060E00E94170352
:1014500082E091E00197F1F787E00E94FC02888327
:1014600080E4DF91CF9108951F93182F8CE00E94A4
:10147000FC02682F607C612B8CE00E941703112313
:1014800011F0143059F486E163E040E023E00E945B
:10149000450387E164E042E020E00AC086E163E0C2
:1014A00040E022E00E94450387E164E042E021E061
:1014B0000E94450380E01F91089585E00E94FC0290
:1014C000089583E10E94FC0208951F93182F84E180
:1014D00067E040E021E00E944503812F8E568D3366
:1014E00010F082E422C01C9B02C084E41EC083E191
:1014F0000E94FC028117C1F083E1612F0E94170353
:1015000081E06FE140E00E943203863011F08930C3
:1015100021F484E191E00197F1F783E10E94FC025C
:10152000811711F083E401C080E41F9108950F93A7
:101530001F930CEA13E0C8010197F1F70E94B1066E
:1015400082E06FE140E023E00E944503C80101977B
:10155000F1F781E06FE140E00E943203883011F042
:1015600083E418C08CE10E94FC0280934A0D87300E
:1015700081F48DE10E94FC02813059F48EE10E94D9
:10158000FC028F3131F48EE06FEF0E94170380E48C
:1015900001C081E41F910F91089581E06FE140E067
:1015A0000E943203893011F084E408958BE160E8F1
:1015B00047E021E00E9445038AE160E847E021E03E
:1015C0000E9445030E94EC0284E191E00197F1F74B
:1015D0000E94E902882381F08BE160E847E00E94E5
:1015E0003203882349F48AE160E847E00E9432032D
:1015F000882311F480E4089583E4089583E59EE050
:101600009093AC108093AB1027E930E13093AE108B
:101610002093AD109093B0108093AF103093B21020
:101620002093B1108EE180934F0E1092500E1092C5
:10163000510E0895DB012091580D3091590DF9019B
:1016400043E0EE0FFF1F4A95E1F7E21BF30BE05A70
:10165000F24F808391838C91828311968C911197A4
:10166000838312968C911297848313968C9113978F
:10167000858314968C9186832F5F3F4F3093590D4D
:101680002093580D0895DF92EF92FF920F931F93CE
:10169000CF93DF9354E1E52EF12CDD24D3945EC08B
:1016A0002150822F90E08E9DF0018F9DF00D9E9D28
:1016B000F00D1124ED54FF4E83818C3C09F050C095
:1016C00084818E3E09F04CC081858F3F09F048C06F
:1016D00082858F3F09F044C08385882309F040C08C
:1016E0002093560D108500E08781A801480F511DF9
:1016F0002091FC0B3091FD0B4217530728F4848591
:10170000813011F48093540D2F5F3F4F42175307E0
:1017100031F410928D1382E192E00E94AC0080912E
:10172000560D90E04091FC0B5091FD0B8E9DF00109
:101730008F9DF00D9E9DF00D1124ED54FF4ED08530
:10174000C0E087819E01280F311DCA01019728172B
:10175000390721F4452B11F0D092550D2091560DEB
:10176000222309F09DCF1092560DDF91CF911F914A
:101770000F91FF90EF90DF9008950E942D090E9435
:10178000CF099093FD0B8093FC0B0895CF93DF93CB
:1017900021E62093D00D28E82093D10D1092D20D90
:1017A0002CEC2093D30D2EEE2093D40D8093D50DE9
:1017B0009093D60D8091FC0B9091FD0B8093D70DEB
:1017C0009093D80D8FEF8093D90D8093DA0D6093AD
:1017D000DB0D4093DC0D89E00E94CD07803411F5CC
:1017E0001092520E8FE060ED7DE00E942007803461
:1017F000B1F48EE292E00E94AC00C0EDDDE0899190
:101800000E94B90083E392E00E94AC008DE0CD3DE0
:10181000D807A9F780E090E90197F1F707C085E3C1
:1018200092E002C085E492E00E94AC0086E10E9452
:10183000CD07803421F085E492E00E94AC0081E085
:101840008093520EDF91CF910895CF93DF9321E6DD
:101850002093D00D28E82093D10D1092D20D2CECBE
:101860002093D30D2EEE2093D40D8093D50D90931D
:10187000D60D8091FC0B9091FD0B8093D70D90932A
:10188000D80D8FEF8093D90D8093DA0D6093DB0D27
:1018900080914C0D8093DC0D80914D0D8093DD0D7A
:1018A00084EF91E028EB30E0F9013197F1F70197EF
:1018B000D9F789E00E94CD07803411F51092520EBD
:1018C00080E160ED7DE00E9420078034B1F48DE579
:1018D00092E00E94AC00C0EDDDE089910E94B90069
:1018E00083E392E00E94AC008DE0CE3DD807A9F7DB
:1018F00080E090E90197F1F707C085E392E002C02C
:1019000085E492E00E94AC0086E10E94CD0780341D
:1019100021F085E492E00E94AC0081E08093520EB9
:10192000DF91CF9108952F923F924F925F926F92E5
:101930007F928F929F92AF92BF92CF92DF92EF925F
:10194000FF920F931F93DF93CF93CDB7DEB7C552AE
:10195000D2400FB6F894DEBF0FBECDBF82E792E053
:101960000E94AC0080915B0D0E94B90082E892E079
:101970000E94AC0080915B0D90915C0D019690935C
:101980005C0D80935B0D88249924AA24BB246624D3
:10199000EE24CD5DDD4F1882C352D2402CEF3FEFD5
:1019A000CF5DDD4F39832883C152D240C15EDD4F08
:1019B00039832883CF51D240C35EDD4F39832883DA
:1019C000CD51D240CC24DD24FAC38EEA92E00E94AD
:1019D000AC008091500E0E94B9002E982091B11059
:1019E0003091B2108091AD109091AE102817390748
:1019F00049F48091AB109091AC109093B210809309
:101A0000B11006C02C5E3F4F3093B2102093B1103E
:101A1000F89480914F0E8F5F80934F0E8091500EFF
:101A200081508093500E78942E9A8FEC92E00E9411
:101A3000AC0000E010E0E091B110F091B210E00FC6
:101A4000F11F80810E94B90083E392E00E94AC0004
:101A50000F5F1F4F0031110571F7A091B110B091C8
:101A6000B21013968C9113978C3C09F029C21496EE
:101A70008C9114978E3E09F023C219964C911997B8
:101A80004F3F09F04EC11A968C911A978F3F09F07B
:101A900050C01B968C911B97863009F04AC01C964B
:101AA0009C911C9780914D0D981709F042C0809130
:101AB0004B0D882309F404C283EE92E00E94AC002F
:101AC00000E010E012C0E8EBF0E03197F1F7019789
:101AD000D1F78091FC0B9091FD0B60E00E94250CEA
:101AE0000F5F1F4F0431110519F088EB9BE0EBCF1E
:101AF000F89483E59EE09093AC108093AB10E7E9F7
:101B0000F0E1F093AE10E093AD109093B01080939D
:101B1000AF10F093B210E093B1108EE180934F0EAE
:101B20001092500E1092510E789481E08093510DD6
:101B3000C7C11A968C911A978F3F31F51B968C91DD
:101B40001B97803109F517968C91179790E020919B
:101B5000FC0B3091FD0B82179307B1F418968C9112
:101B60001897882389F480914B0D882309F4A8C124
:101B700083E193E00E94AC0081E493E00E94AC001A
:101B800081E080934E0D9CC11A968C911A978F3FDD
:101B900031F51B968C911B97813109F517968C9125
:101BA000179790E02091FC0B3091FD0B8217930763
:101BB000B1F418968C911897882389F480914B0D75
:101BC000882309F47DC18FE593E00E94AC0081E495
:101BD00093E00E94AC0081E08093520D71C11A968F
:101BE0008C911A978F3F31F51B968C911B97823100
:101BF00009F517968C91179790E02091FC0B309186
:101C0000FD0B82179307B1F418968C9118978823CF
:101C100089F480914B0D882309F452C18DE893E03B
:101C20000E94AC0081E493E00E94AC0081E08093CC
:101C3000500D46C11A968C911A978F3FD9F41B9676
:101C40008C911B978730B1F41C969C911C978091C6
:101C50004D0D981779F480914B0D882309F430C10C
:101C60008AEB93E00E94AC0081E080934F0D80935B
:101C70004C0D26C11A968C911A978F3FC9F41B966A
:101C80008C911B978930A1F41C969C911C97809194
:101C90004D0D981769F480914B0D882309F410C1FC
:101CA00082EE93E00E94AC0081E08093530D08C166
:101CB0001A968C911A978F3FB1F51B968C911B97B2
:101CC000883089F58091FC0B9091FD0B892B59F59B
:101CD00080914B0D882309F0F3C08AE094E00E94C4
:101CE000AC00A091B110B091B210F501EE0FFF1F42
:101CF000EA0DFB1DEE0FFF1F29E631E02C0F3D1F03
:101D0000E20FF31F17968C911797808318968C918A
:101D1000189781831D968C9182830894A11CB11C15
:101D2000CFC04F3F99F51A968C911A978F3F71F556
:101D30001B968C911B97853049F580914B0D88231C
:101D400009F0BEC084E394E00E94AC00A091B11001
:101D5000B091B210F601EE0FFF1FEC0DFD1DEE0F5E
:101D6000FF1F81E090E08C0F9D1FE80FF91F179671
:101D70008C911797808318968C91189781831D9664
:101D80008C9182830894C11CD11C9AC080914C0D07
:101D9000813089F54F3F79F51A968C911A978F3FCC
:101DA00069F51B968C911B97833041F580914B0D03
:101DB000882309F085C0F401EE0FFF1FE80DF91D1F
:101DC000EE0FFF1F25EB30E02C0F3D1FE20FF31F3E
:101DD00017968C911797808318968C91189781830A
:101DE0001D968C9182830894811C911C85E594E05A
:101DF0000E94AC0065C04F3F09F062C01A968C91FA
:101E00001A978F3F09F05CC01B968C911B97882313
:101E100009F056C080914B0D882309F051C01796E8
:101E20008C91179790E02091FC0B3091FD0B82175D
:101E3000930709F045C018968C91882309F040C09B
:101E40008CE794E00E94AC008091FC0B9091FD0B1C
:101E500001960E94BD0B00E010E012C0E8EBF0E03C
:101E60003197F1F70197D1F78091FC0B9091FD0B21
:101E700060E00E94250C0F5F1F4F0431110519F01F
:101E800088EB9BE0EBCFF89483E59EE09093AC1059
:101E90008093AB10E7E9F0E1F093AE10E093AD1062
:101EA0009093B0108093AF10F093B210E093B11004
:101EB0008EE180934F0E1092500E1092510E789436
:101EC0008091500E882351F480914E0D882331F07B
:101ED00080914F0D882311F010924E0D8091500E7D
:101EE000882351F48091520D882331F08091530D55
:101EF000882311F01092520D8091500E882351F4D6
:101F00008091500D882331F08091510D882311F07C
:101F10001092500D8091500E882309F062C0C114B8
:101F2000D10409F45EC080914B0D882309F059C09B
:101F3000C60101978C01000F111F080F191F000F18
:101F4000111F21E030E02C0F3D1F020F131F0894DA
:101F5000C108D10886EA94E00E94AC00F8017280C2
:101F6000E71410F07E2C11C08BEC94E00E94AC00C2
:101F7000F8015180442480819201280F311DCF5DEA
:101F8000DD4F39832883C152D24006501040C1141E
:101F9000D10411F0E72CDBCF8091FC0B9091FD0B6D
:101FA0000196CF5DDD4FE881F981C152D240E8173B
:101FB000F907C1F480EF94E00E94AC00CF5DDD4FE3
:101FC00088819981C152D24066E0472D0E94C60B9C
:101FD00080E69AEEE8EBF0E03197F1F70197D1F760
:101FE00001C07E2C8091500E882309F068C08114B6
:101FF000910409F464C080914B0D882309F05FC0FF
:1020000085E195E00E94AC0083E495E00E94AC007D
:10201000C40101978C01000F111F080F191F000F39
:10202000111F25EB30E02C0F3D1F020F131F0894EA
:102030008108910888E695E00E94AC00F801E280F2
:102040006E1410F0E62C11C08EE895E00E94AC00F2
:10205000F8013180222480819101280F311DC15E59
:10206000DD4F39832883CF51D24006501040811470
:10207000910411F06E2CDBCF84EB95E00E94AC0054
:102080008091FC0B9091FD0B0196C15EDD4FE881C4
:10209000F981CF51D240E817F90791F48AED95E024
:1020A0000E94AC00C15EDD4F88819981CF51D24042
:1020B00067E04E2D0E94C60B10924C0D01C0E62C1D
:1020C0008091500E882309F06EC0A114B10409F468
:1020D0006AC080914B0D882309F065C0C501019746
:1020E0008C01000F111F080F191F000F111F29E687
:1020F00031E02C0F3D1F020F131F0894A108B108F7
:1021000080E096E00E94AC00F801F280CD5DDD4FEA
:10211000F881C352D240FF1510F0FF2E1CC0F80109
:10212000F181CB5DDD4FF883C552D240CC5DDD4FF0
:102130001882C452D240F8018081CC5DDD4F2881E5
:102140003981C452D240280F311DC35EDD4F39831F
:102150002883CD51D24006501040A114B10431F073
:10216000CD5DDD4FF882C352D240C7CF86E296E004
:102170000E94AC008091FC0B9091FD0B892BC1F467
:102180008CE496E00E94AC00C35EDD4F8881CD51A7
:10219000D240C25EDD4F9881CE51D24069E04F2DD2
:1021A0000E94C60B05C0CD5DDD4FF880C352D24002
:1021B0006E2CE72CCD5DDD4FF882C352D24080916A
:1021C000500E882309F001CC8091510E882309F12B
:1021D000F89483E59EE09093AC108093AB1027E9D0
:1021E00030E13093AE102093AD109093B0108093F7
:1021F000AF103093B2102093B1108EE180934F0E48
:102200001092500E1092510E82E796E00E94AC00A0
:102210007894CB5DDD4F0FB6F894DEBF0FBECDBF17
:10222000CF91DF911F910F91FF90EF90DF90CF90B2
:10223000BF90AF909F908F907F906F905F904F90E6
:102240003F902F9008952F923F924F925F926F92FE
:102250007F928F929F92AF92BF92CF92DF92EF9236
:10226000FF920F931F93DF93CF93CDB7DEB7AA975B
:102270000FB6F894DEBF0FBECDBF88E896E00E948F
:10228000AC0080915E0D0E94B90082E892E00E944D
:10229000AC0080915E0D90915F0D019690935F0D63
:1022A00080935E0DEE24FF2404E1C02ED12C9E010C
:1022B000215030403AA729A79CC38DE996E00E949F
:1022C000AC0080915D0D0E94B90080915D0D815040
:1022D00080935D0D8FEC92E00E94AC0000E010E076
:1022E00080915D0D90E08C9DF0018D9DF00D9C9D89
:1022F000F00D1124E00FF11FEF59FD4E80810E9477
:10230000B90083E392E00E94AC000F5F1F4F0031E1
:10231000110531F780915D0D682F70E044E150E0C8
:10232000649FF001659FF00D749FF00D1124EF592B
:10233000FD4E83818C3C09F09DC084818E3E09F066
:1023400099C081858F3F09F095C082858F3F61F5E7
:102350008385843049F580914B0D882309F0CFC1E6
:102360008EEC96E00E94AC0080915D0D90E0D7016C
:10237000AA0FBB1FE1E0F0E0EC0FFD1FAE0FBF1F87
:1023800024E130E0829FF001839FF00D929FF00DD9
:102390001124EF59FD4E87818C93808511968C9383
:1023A0000894E11CF11CABC16C9DF0016D9DF00D1A
:1023B0007C9DF00D1124EF59FD4E82858F3F09F071
:1023C00059C08385813009F055C0308538A31F8EF0
:1023D00087814F8D58A1480F511D2091FC0B3091E2
:1023E000FD0B2417350758F085858AA319A284852B
:1023F000A9A1BAA1A80FB11DA217B307C8F442172B
:10240000530708F47CC16C9DF0016D9DF00D7C9D1F
:10241000F00D1124EF59FD4EB585BCA31BA2848598
:10242000EBA1FCA1E80FF11D2E173F0708F467C1CF
:1024300080914B0D882309F062C18CEE96E00E94DA
:10244000AC0080915D0D90E08C9DF0018D9DF00DB4
:102450009C9DF00D1124EF59FD4E708466248781F8
:102460009301280F311DC90164E00E94250C1092D0
:10247000250C45C16C9DF0016D9DF00D7C9DF00D0E
:102480001124EF59FD4E81858F3F21F482858F3FC6
:1024900009F435C180914B0D882309F030C181E0EA
:1024A00097E00E94AC0080915D0D90E08C9DF00162
:1024B0008D9DF00D9C9DF00D1124EF59FD4E8381F3
:1024C0008C3C39F584818E3E21F5018510E00E9417
:1024D000CF0908171907E9F480915D0D90E08C9DF4
:1024E000F0018D9DF00D9C9DF00D1124EF59FD4ED6
:1024F000028510E00E94CF09A92EBB240A151B05F6
:1025000041F48BE197E00E94AC0084E397E00E94E5
:10251000AC0080915D0D90E08C9DF0018D9DF00DE3
:102520009C9DF00D1124EF59FD4E83818C3C09F0E8
:10253000E6C084818E3E09F0E2C0018510E00E9471
:10254000CF0908171907B1F480915D0D90E08C9DBB
:10255000F0018D9DF00D9C9DF00D1124EF59FD4E65
:10256000028510E00E94CF09892E992408151905CB
:1025700009F4C5C08091570D882309F046C088E44E
:1025800097E00E94AC0080915D0D90E08C9DD001A1
:102590008D9DB00D9C9DB00D1124AD014F595D4E28
:1025A000FA015284442481859201280F311DC9010A
:1025B000BD0164597D4E2091580D3091590DF9019E
:1025C000A3E0EE0FFF1FAA95E1F7E21BF30BE05A21
:1025D000F24F80839183DA011B968C918283DB0119
:1025E00011968C911197838312968C911297848304
:1025F00013968C911397858314968C9186832F5F05
:102600003F4F3093590D2093580D8091570D8823DB
:1026100009F475C088E797E00E94AC0084EA97E06F
:102620000E94AC0080915D0D90E08C9DF0018D9D2D
:10263000F00D9C9DF00D1124EF59FD4E82850E94F6
:10264000B90080915D0D90E08C9DF0018D9DF00DA5
:102650009C9DF00D1124EF59FD4E81850E94B9001B
:1026600087EC97E00E94AC0080915D0D90E08C9D1E
:10267000F0018D9DF00D9C9DF00D1124EF59FD4E44
:1026800083850E94B90080915D0D90E08C9DF001E2
:102690008D9DF00D9C9DF00D1124EF59FD4E84850C
:1026A0000E94B90080915D0D90E08C9DF0018D9DA0
:1026B000F00D9C9DF00D1124EF59FD4E85850E9473
:1026C000B90080915D0D90E08C9DF0018D9DF00D25
:1026D0009C9DF00D1124EF59FD4E86850E94B90096
:1026E00080915D0D90E08C9DF0018D9DF00D9C9D85
:1026F000F00D1124EF59FD4E87850E94B90080919D
:102700005D0D882309F075C1E114F10409F471C16C
:1027100080914B0D882309F06CC18091580D9091E8
:10272000590DFC0123E0EE0FFF1F2A95E1F7E81B8E
:10273000F90BE05AF24F3180222480819101280F59
:10274000311D8091FC0B9091FD0B0894E108F1087C
:102750002817390720F584EE97E00E94AC0000911D
:10276000FC0B1091FD0BF701EE0FFF1F21E030E095
:102770002C0F3D1FE20FF31F31813EA31DA280816C
:102780004DA15EA1480F511D4017510708F48A0161
:10279000329789A59AA5E817F90771F723C08FEF3B
:1027A00097E00E94AC000091FC0B1091FD0BF7012B
:1027B000EE0FFF1FA1E0B0E0AC0FBD1FEA0FFB1F43
:1027C000B181B8A71FA280812FA138A5280F311D84
:1027D0000217130708F48901329749A55AA5E4178F
:1027E000F50771F78CE198E00E94AC00802F0E9401
:1027F000B90081E68093D00D88E88093D10D1092C6
:10280000D20D8CEC8093D30D8EEE8093D40D00937B
:10281000D50D1093D60D8091FC0B9091FD0B8093FC
:10282000D70D9093D80D8091580D9091590DFC01C2
:1028300003E0EE0FFF1F0A95E1F7E81BF90BE05AE2
:10284000F24F80818093D90D81818093DA0D82814E
:102850008093DB0D83818093DC0D84818093DD0D7B
:1028600085818093DE0D86818093DF0D81E398E082
:102870000E94AC0085E498E00E94AC008091580D65
:102880009091590DFC0113E0EE0FFF1F1A95E1F72F
:10289000E81BF90BE05AF24F81810E94B900809148
:1028A000580D9091590DFC01B3E0EE0FFF1FBA9542
:1028B000E1F7E81BF90BE05AF24F80810E94B90062
:1028C0008DE598E00E94AC008091580D9091590DD3
:1028D000FC01A3E0EE0FFF1FAA95E1F7E81BF90B3F
:1028E000E05AF24F82810E94B9008091580D909178
:1028F000590DFC0173E0EE0FFF1F7A95E1F7E81B1D
:10290000F90BE05AF24F83810E94B9008091580D73
:102910009091590DFC0163E0EE0FFF1F6A95E1F7FE
:10292000E81BF90BE05AF24F84810E94B9008091B4
:10293000580D9091590DFC0153E0EE0FFF1F5A9571
:10294000E1F7E81BF90BE05AF24F85810E94B900CC
:102950008091580D9091590DFC0143E0EE0FFF1F3F
:102960004A95E1F7E81BF90BE05AF24F86810E9485
:10297000B90089E10E94CD07803429F51092520EEA
:1029800082E160ED7DE04FE00E94D4068034C1F426
:102990008EE292E00E94AC0000ED1DE0D8018D9126
:1029A0008D010E94B90083E392E00E94AC00BDE07B
:1029B000003E1B0799F780E090E90197F1F707C007
:1029C00085E392E002C085E492E00E94AC0086E1DB
:1029D0000E94CD07803421F085E492E00E94AC0093
:1029E00081E08093520E1092570D10925A0DEE24F2
:1029F000FF2480915D0D882309F05FCCAA960FB665
:102A0000F894DEBF0FBECDBFCF91DF911F910F9124
:102A1000FF90EF90DF90CF90BF90AF909F908F90FE
:102A20007F906F905F904F903F902F90089580918E
:102A3000520E882309F4B7C080914F0E882321F4E9
:102A400081E08093510E08958FED91E10E947A0309
:102A500080916012882309F4A6C08091E3118C3C18
:102A600009F0A1C08091E4118E3E09F09CC08091D4
:102A7000E5118F3F21F48091E6118F3F21F0809185
:102A8000EB118330A1F08091EB11853081F086301D
:102A900071F0873061F0883051F0893041F0803139
:102AA00031F0813121F0823111F0882381F52091BC
:102AB000AF103091B0108091AD109091AE102817EA
:102AC000390741F48091AB109091AC109093B01005
:102AD0008093AF102091AF103091B010E0EEF1E193
:102AE000D90181918D9381E1E03FF807D1F72C5E08
:102AF0003F4F3093B0102093AF1080914F0E815014
:102B000080934F0E8091500E8F5F8093500E809176
:102B1000EB11882311F58091E5118F3F11F580911C
:102B2000E6118F3FF1F48091560D8E3011F4109222
:102B3000560D9091560DA0EEB1E184E1989FF00101
:102B40001124ED54FF4E8D91819381E1A03FB80790
:102B5000D1F79F5F9093560D04C0813059F08430B7
:102B600049F08091E9118F3F29F480EE91E18F3F88
:102B70009105C9F080915D0D8E3011F410925D0DBC
:102B800090915D0DA0EEB1E184E1989FF0011124D8
:102B9000EF59FD4E8D91819381E1A33FB807D1F7A5
:102BA0009F5F90935D0D089583E00E9487000895D4
:102BB0000E949B01882379F50E9445090E94970A8B
:102BC000803449F58EE60E94650A803421F580E064
:102BD0000E94340A80EC61E00E9478098091FC0B2D
:102BE0009091FD0B0E942D098CEC9EEE0E943909FC
:102BF00080E00E9498078AEE62EE0E94A90881E0B8
:102C00000E949F0787E195E10E9463028FE00E9486
:102C1000FC0281E0089580E008952F923F924F9248
:102C20005F926F927F928F929F92AF92BF92CF925C
:102C3000DF92EF92FF920F931F93DF93CF93CDB765
:102C4000DEB7CF5FD0400FB6F894DEBF0FBECDBF6A
:102C500043E5642E4EE0742E38EBA32EB12C10C049
:102C600020E030E00AC0F5013197F1F70197D9F77C
:102C70002F5F3F4F2530310519F088EC9FEAF3CFE5
:102C800081E080934B0D8093520EF8947092AC10BB
:102C90006092AB1087E990E19093AE108093AD10F5
:102CA0007092B0106092AF109093B2108093B110F8
:102CB0008EE180934F0E1092500E1092510E789428
:102CC00083E00E9487000E94D81580E090E9019778
:102CD000F1F786E10E94CD07803429F08EEF9BE06A
:102CE00067E20E94A00078940E94E4015F98198234
:102CF00084E798E00E94AC0080E090E90197F1F74A
:102D000086E00E94CD07803421F08EE998E00E9491
:102D1000AC00DD24EE24FF244E010894811C911C9C
:102D20008091500E882309F484C02E982091B11010
:102D30003091B2108091AD109091AE1028173907E4
:102D400049F48091AB109091AC109093B2108093A5
:102D5000B11006C02C5E3F4F3093B2102093B110DB
:102D6000F89480914F0E8F5F80934F0E8091500E9C
:102D700081508093500E78942E9AE091B110F0918A
:102D8000B21081858F3F09F05BC082858F3F09F0CB
:102D900057C08385882309F053C00D2D10E0000F24
:102DA000111F000F111F82E090E08C0F9D1F080F74
:102DB000191F8781F8018083E091B110F091B21062
:102DC0008085F8018183C4010E94160A8981F80177
:102DD0008283E091B110F091B2108485F801838371
:102DE00086E29CE069E10E94A0008FE39CE063E141
:102DF0000E94A000F80181810E94EB008EEA98E019
:102E00000E94AC00F80180810E94EB00F8018381F0
:102E1000813021F480EB98E00E94AC0082E59CE0D8
:102E20006AE00E94A000F80182810E94B900D39458
:102E300007C080E699E0F5013197F1F70197D9F7DE
:102E40000894E11CF11CFCE3EF16F10409F068CFD3
:102E50008AEB98E00E94AC008D2D0E94EB0080E090
:102E600090E90197F1F786E10E94CD07803421F0C7
:102E70008EE998E00E94AC00DE011296FF2410E07B
:102E800000E020E030E0CD2CDD24A601440F551FEA
:102E9000440F551F4A0F5B1F67C06C91662341F4B6
:102EA00011968C911197882319F41296FC90129721
:102EB00013968C9113978130F1F412960C9112971E
:102EC00011969C901197C150DF4F9882CF5FD040F0
:102ED000C250DF4F1882CE5FD040C250DF4F888192
:102EE0009981CE5FD040860F911DC650DF4F9983E8
:102EF0008883CA5FD0401196EC9011973E2C222413
:102F0000F901EE0FFF1FEE0FFF1F72E0872E912CCD
:102F10008C0E9D1EE80DF91D912F8181E816E1F4BC
:102F20007081862F871B8130B9F412968C9112978D
:102F30001281811708F4182F911770F4872F7617D4
:102F400008F4862F4101880E911CC450DF4F9982EE
:102F50008882CC5FD04001C0192F3496E417F50762
:102F6000D9F62F5F3F4F14962C153D050CF495CFE5
:102F7000C450DF4FE880CC5FD040C350DF4FD880D3
:102F8000CD5FD04081EF98E00E94AC008F2D0E9471
:102F9000B9008EEF98E00E94AC00812F0E94B9002A
:102FA0008DE099E00E94AC00802F0E94B900FF20C4
:102FB00091F4112399F40023A1F48AE199E00E948D
:102FC000AC0080E090E00E94BD0B10924B0D81E0C0
:102FD00080934C0D40C10F1508F48CC0011708F404
:102FE00089C011E010934B0D00934D0D86E399E0DD
:102FF0000E94AC0010934C0DC550DF4F8881CB5F11
:10300000D0400E94EB008EEA98E00E94AC00C650CF
:10301000DF4F8881CA5FD0400E94EB00C650DF4F6F
:1030200088819981CA5FD04001960E94BD0B0E94A1
:10303000930C80914E0D882309F042C08EE599E0F3
:103040000E94AC008091FC0B9091FD0B60E10E940E
:10305000250C86E899E00E94AC0000E010E019C061
:10306000F5013197F1F70197D9F78091FC0B909119
:10307000FD0B60E10E94250C8091FC0B9091FD0BF3
:10308000019763E00E94250C0F5F1F4F0A30110566
:1030900019F088EB9BE0E4CF80E395E7F5013197E9
:1030A000F1F70197D9F78091FC0B9091FD0B60E14E
:1030B0000E94250C0E94930C80914E0D882329F0CC
:1030C00010924C0D10924E0DCBCD80914F0D882358
:1030D00019F410924C0DC4CD10924B0D87EA99E073
:1030E0000E94AC008091FC0B9091FD0B60E00E946F
:1030F000250CB1C0101708F4B1C01F1508F4AEC0FC
:1031000081E080934B0D10934D0D88EC99E00E9467
:10311000AC008D2D0E94EB008EEA98E00E94AC007E
:103120008E2D0E94EB008E2D9D2D0E94BD0B0E94C6
:10313000930C8091500D882309F04DC082EE99E0E8
:103140000E94AC008091FC0B9091FD0B62E10E940B
:10315000250C0E94930C8BE09AE00E94AC008E2D0F
:103160009D2D0E94BD0B00E010E019C0F5013197C4
:10317000F1F70197D9F78091FC0B9091FD0B62E17B
:103180000E94250C8091FC0B9091FD0B019765E04E
:103190000E94250C0F5F1F4F0A30110519F088EBB4
:1031A0009BE0E4CF80E395E7F5013197F1F70197D4
:1031B000D9F78091FC0B9091FD0B62E10E94250CE8
:1031C0000E94930C8091510D882309F449CD809180
:1031D000500D882319F01092500D42CD10924B0DD6
:1031E00088E39AE00E94AC0000E010E018C0F5010E
:1031F0003197F1F70197D9F78091FC0B9091FD0B76
:1032000062E10E94250C8091FC0B9091FD0B60E027
:103210000E94250C0F5F1F4F0531110519F088EB37
:103220009BE0E5CF7092AC106092AB1087E990E123
:103230009093AE108093AD107092B0106092AF106A
:103240009093B2108093B1108EE180934F0E109244
:10325000500E1092510E8824992488C0F016D8F38D
:10326000F116C8F381E080934B0DF0924D0D80E094
:1032700090E00E94BD0B0E94930C8091520D882318
:1032800009F047C088E59AE00E94AC008091FC0BF1
:103290009091FD0B61E10E94250C0E94930C80919E
:1032A000520D8823B1F580E89AE00E94AC0000E05E
:1032B00010E018C0F5013197F1F70197D9F7809127
:1032C000FC0B9091FD0B61E10E94250C8091FC0BA1
:1032D0009091FD0B68E00E94250C0F5F1F4F0A3094
:1032E000110519F088EB9BE0E5CF80E395E7F50148
:1032F0003197F1F70197D9F78091FC0B9091FD0B75
:1033000061E10E94250C0E94930C8091520D88234C
:1033100019F01092520DA4CC8091530D882309F41A
:103320009FCC10924B0D81EA9AE00E94AC0000E025
:1033300010E019C0F5013197F1F70197D9F78091A5
:10334000FC0B9091FD0B61E10E94250C8091FC0B20
:103350009091FD0B60E00E94250C0F5F1F4F043120
:10336000110509F45FCF88EB9BE0E4CF8091250C39
:103370008823A9F00E94BB07803479F482EC9AE09C
:103380000E94AC000E94231C88EB9BE0F501319762
:10339000F1F70197D9F70E943D070E94D81586E101
:1033A0000E94CD07803431F08EEF9BE067E20E94EF
:1033B000A00004C087ED9AE00E94AC008091250C2B
:1033C000882351F488EB9BE0F5013197F1F70197E1
:1033D000D9F781E08093250C85EE9AE00E94AC003D
:1033E0008091FD0B0E94EB008EEA98E00E94AC00F9
:1033F0008091FC0B0E94EB0083E09BE00E94AC00FC
:10340000882D0E94B90085E08816910409F08CC0CF
:103410008EE19BE00E94AC0081E080938D131092BE
:10342000540D1092550D1092560D8091FC0B9091F9
:10343000FD0B892B81F100E010E020C0F5013197F0
:10344000F1F70197D9F78FEF9FEF60E00E94250C0D
:1034500080E797E1F5013197F1F70197D9F70E94DD
:10346000430B8091540D882361F48091550D88237E
:1034700041F40F5F1F4F0530110519F080EC9DE5F9
:10348000DDCF8091550D882331F480E49BE00E94CC
:10349000AC0090E039C000E010E020C0F5013197A9
:1034A000F1F70197D9F78FEF9FEF60E00E94250CAD
:1034B00080E797E1F5013197F1F70197D9F70E947D
:1034C000430B8091540D882361F480918D138823E0
:1034D00041F00F5F1F4F0530110519F080EC9DE59D
:1034E000DDCF80918D13882371F081E080934C0DA6
:1034F0008FE59BE00E94AC008091FC0B9091FD0B4E
:1035000060E00E94250C91E08091540D882339F0F1
:103510001092540D80E89BE00E94AC00A1CB99234F
:1035200009F49ECB8824992488E799E6F501319720
:10353000F1F70197D9F741E04093570D8091580D6D
:103540009091590D181619060CF04EC101979093E1
:10355000590D8093580DFC0133E0EE0FFF1F3A9593
:10356000E1F7E81BF90BE05AF24F5181552E442444
:10357000E08192012E0F311D8091FC0B9091FD0B8B
:103580002817390781F488EE93E0F5013197F1F7B8
:103590000197D9F78BEB9BE00E94AC0084E397E0A6
:1035A0000E94AC0021C140935A0D81E68093D00D5A
:1035B00088E88093D10D1092D20D8CEC8093D30DBE
:1035C0008EEE8093D40D9FEF9093D50D9093D60DF2
:1035D0008091FC0B8093D70D8091FD0B8093D80DCB
:1035E0009093D90D9093DA0D4093DB0DE093DC0DB1
:1035F0005093DD0DEE24FF24DD24D39483ED9BE076
:103600000E94AC0089E00E94CD078034F9F410924A
:10361000520E80E160ED7DE00E9420078EE292E094
:103620000E94AC0000ED1DE0F80181918F010E9425
:10363000B90083E392E00E94AC00FDE00E3D1F075D
:1036400099F780E090E90197F1F704C085E492E0F2
:103650000E94AC0086E10E94CD07803421F085E411
:1036600092E00E94AC00D092520E8CE697E0F501F9
:103670003197F1F70197D9F70894E11CF11C83E029
:10368000E816F10409F0BACF1092250C80E797E113
:10369000F5013197F1F70197D9F70E942311DD2445
:1036A000D394CC24CA949BC087EE9BE00E94AC00CC
:1036B0008D2D0E94B9008D2D0E94B9009AE1D91676
:1036C00009F492C0E1E6E093D00DF8E8F093D10D53
:1036D0001092D20D8CEC8093D30D9EEE9093D40D6E
:1036E000C092D50DC092D60D8091FC0B8093D70D62
:1036F0008091FD0B8093D80DC092D90DC092DA0D48
:10370000E1E0E093DB0D8091580D9091590DFC01A3
:1037100023E0EE0FFF1F2A95E1F7E81BF90BE05AB3
:10372000F24F80818093DC0D81818093DD0DEE244A
:10373000FF2483ED9BE00E94AC0089E00E94CD074E
:103740008034F9F41092520E80E160ED7DE00E9429
:1037500020078EE292E00E94AC0000ED1DE0F8012F
:1037600081918F010E94B90083E392E00E94AC0036
:10377000FDE00E3D1F0799F780E090E90197F1F712
:1037800004C085E492E00E94AC0086E10E94CD076F
:10379000803421F085E492E00E94AC0081E08093C7
:1037A000520E8CE697E0F5013197F1F70197D9F7C2
:1037B0000894E11CF11C93E0E916F10409F0B9CF7B
:1037C00080E797E1F5013197F1F70197D9F70E946A
:1037D00023118FEF9FEF60E00E94250CD39480911E
:1037E0005A0D882309F060CF0894811C911C109217
:1037F000570D0E94930C0E9423110E94430B2E9898
:103800008FEF9FEF60E00E94250C0E942D01F8943D
:103810007092AC106092AB10E7E9F0E1F093AE105B
:10382000E093AD107092B0106092AF10F093B210B0
:10383000E093B1108EE180934F0E1092500E1092D3
:10384000510E789493CD0F931F93DF93CF9300D0B5
:1038500000D00F92CDB7DEB7DE011196EBE8FCE0A9
:1038600085E001900D928150E1F78CE59CE00E948B
:10387000AC0080E29EE428EB30E0F9013197F1F7EB
:103880000197D9F78EE893E10E94150120E030E01E
:10389000F901EB5FFB4ED901A257BC4E8C918053CE
:1038A00080832F5F3F4F2531310591F705E014E10B
:1038B000F80181918F010E94B900F4E105311F07E1
:1038C000B9F782E79CE00E94AC000EE813E1F80132
:1038D00081918F010E94B900F3E10E391F07B9F7FA
:1038E000809105148930F1F4809106148930D1F467
:1038F00085E79CE00E94AC00E9E0F4E1DE0111966E
:1039000081918D9384E1EE30F807D1F790910814FE
:1039100080E020910714820F911DBE016F5F7F4FE1
:103920000E941A0B0E942D010F900F900F900F9084
:103930000F90CF91DF911F910F910895991B79E01E
:1039400004C0991F961708F0961B881F7A95C9F72F
:0839500080950895F894FFCF63
:1039580030313233343536373839414243444546BD
:1039680000090D0A3E3E4920616D206E6F74207477
:10397800686520626967676573747E7E7E000D0ADC
:103988003C3C0020000D0A213C53656E74204661C2
:10399800696C6564000D0A212153746174652043C4
:1039A80068616E6765204661696C6564000D0A3C54
:1039B8003C53656E6477696C643A3A3A3A3A3A3AF3
:1039C8003A000D0A2121696E746F2074696D657360
:1039D8003A000D0A2121506C656173652070617988
:1039E80020617474656E74696F6E7E7E7E7E7E7EE5
:1039F8007E7E7E7E7E7E7E7E7E7E7E7E7E000D0A42
:103A0800212172785F706F6F6C5F6974656D735F89
:103A1800757365643A3A3A3A3A3A3A3A3A3A000D9C
:103A28000A3E3E4461746120526563656976656447
:103A38003A3A000D0A3E3E53686F7274204164643E
:103A480072657373204150504C494E47206861732A
:103A5800206265656E20436F6E6669726D65642EBF
:103A68002E2E000D0A3E3E53434D445F5441494CAF
:103A78005F46495253545F434F4D45206861732058
:103A88006265656E2072656365697665642E2E2EA3
:103A9800000D0A3E3E49206861766520746F2067F4
:103AA8006F746F2073746172742E2E2E2E2E000D7B
:103AB8000A3E3E53434D445F484541445F464952A0
:103AC80053545F434F4D4520686173206265656EAE
:103AD8002072656365697665642E2E2E000D0A3E98
:103AE8003E53434D445F4D45445F46495253545FEE
:103AF800434F4D4520686173206265656E2072658D
:103B08006365697665642E2E2E000D0A3E3E54616B
:103B1800696C20204150504C494E47206861732001
:103B28006265656E20436F6E6669726D65642E2EE0
:103B38002E000D0A3E3E4865616420204150504CDD
:103B4800494E4720686173206265656E20436F6E39
:103B58006669726D65642E2E2E000D0A3E3E48453C
:103B68004144204F434355505920507265702043BB
:103B7800616C6C6261636B2052656365697665642C
:103B88002E2E2E000D0A3E3E50726570206E65770F
:103B9800206170706C696E6720526563656976652F
:103BA800642E2E2E000D0A3E3E526F7574652074E9
:103BB80061696C2042726F6164636173742052653D
:103BC800636F676E697A65642E2E2E000D0A3E3E7D
:103BD80053686F7274204164647265737320427213
:103BE8006F616463617374205265636F676E697A8D
:103BF80065642E2E2E000D0A3C3C53656E64696E7A
:103C080067204E6577205072657020636F6E666915
:103C1800726D31313131312E2E2E000D0A3C3C535C
:103C2800656E64696E67204E6577205072657020F6
:103C3800636F6E6669726D32323232322E2E2E000A
:103C48000D0A3C3C53656E64696E67204E657720AB
:103C58005072657020636F6E6669726D33333333EB
:103C6800332E2E2E000D0A2121506C6561736520BC
:103C780070617920617474656E74696F6E7E7E7E82
:103C88007E7E7E7E7E7E7E7E7E7E7E7E7E7E7E7E4C
:103C98007E7E000D0A2121696E746F20757365643C
:103CA8003D3D3021212121212121212121212121B5
:103CB80021212121212121000D0A3C3C53656E64FC
:103CC800696E67205461696C205072657020636F5B
:103CD8006E6669726D30303030312E2E2E000D0A2E
:103CE8003C3C53656E64696E67205461696C205072
:103CF80072657020636F6E6669726D32323232326D
:103D08002E2E2E000D0A3C3C53656E64696E6720AA
:103D18005461696C205072657020636F6E666972B9
:103D28006D31313131312E2E2E000D0A3C3C536558
:103D38006E64696E67205461696C205072657020EA
:103D4800636F6E6669726D33333333332E2E2E00F4
:103D58000D0A3C3C53656E64696E67204865616472
:103D6800207072657020636F6E6669726D303030D6
:103D780030312E2E2E000D0A3C3C53656E64696E60
:103D8800672048656164205072657020636F6E66B5
:103D980069726D31313131312E2E2E000D0A3C3CC5
:103DA80053656E64696E672048656164205072656A
:103DB8007020636F6E6669726D33333333332E2E22
:103DC8002E000D0A2121525820506F6F6C206F76FB
:103DD8006572666C6F772E000D0A2121696E746F0B
:103DE80020507265702074696D65733A000D0A2160
:103DF8002172785F706F6F6C5F6E6574776F726B2E
:103E08005F707265705F6275665F68656164207572
:103E18007365643A3A3A3A3A3A3A3A3A3A000D0A03
:103E28003E3E507265702043616C6C6261636B202A
:103E380052656365697665642E2E2E000D0A3E3E36
:103E4800507265702052656365697665642E2E2E02
:103E5800000D0A3E3E44617461205061636B6167E6
:103E68006520526563656976656400776974686979
:103E78006E206E6F726D616C207265636569766520
:103E88007E7E7E000D0A3E3E79616E676A696573C3
:103E980068616875687521000D0A3C3C5472616E52
:103EA8007366726F6D696E672064617461206E6FEE
:103EB80077206973206D792073656E64696E672059
:103EC800646174612E2E2E000D0A3C3C4920686105
:103ED800766520526563656976656420627574202D
:103EE80074696D65206973206E6F7420676F6F64E5
:103EF8002E2E2E000D0A3C3C446573742073686FA7
:103F080074416464722061706172742069733A3A12
:103F18003A3A3A2E2E2E000D0A3C3C544F20446566
:103F280073742020646174612069733A3A3A3A3AAA
:103F38002E2E2E000D0A3C3C53656E64696E672078
:103F480044617461205570776172642E2E2E000DC5
:103F58000A3C3C53656E64696E6720446174612055
:103F6800446F776E776172642E2E2E000D0A3C3CEA
:103F7800546F206E6F6465203A3A3A3A3A3A3A2ECC
:103F88000053656E64696E67204D6573733A3A3AFB
:103F98003A3A3A3A00446573742053616464722073
:103FA80061706172743A3A3A3A3A3A3A00546F2078
:103FB8004465737420446174612069733A3A3A3AEB
:103FC8003A3A3A000D0A2121537461727420746FD1
:103FD8002073656172636820746865206E6569671F
:103FE80068626F72206E6F6465732E2E2E000D0A44
:103FF8002121464554414C204552524F52002E0033
:10400800286973205461696C29000D0A21215365C0
:1040180061726368696E672046696E697368656472
:104028002E4E756D626572206F66204E65696768F1
:10403800626F72204E6F64657320466F756E643AC6
:10404800000D0A3E3E486561642045443A000D0A69
:104058003E3E4D6964646C652045443A000D0A3E55
:104068003E5441494C2045443A000D0A21214372EF
:10407800656174696E67204E6577204E6574776F49
:10408800726B2E2E2E000D0A212143757272656EF9
:1040980074205461696C204E6F64652053686F7298
:1040A8007420416464726573732069733A000D0A61
:1040B8004259206669727374206A7565676520497C
:1040C80020616D207468652046697273742054619C
:1040D800696C7E7E7E000D0A3C3C42726F616463AF
:1040E800617374207461696C206F636375706174A7
:1040F800696F6E2E2E2E000D0A46696E616C6C7902
:10410800204920616D2074686520466972737420A7
:104118005461696C7E7E7E000D0A21214F636375B0
:1041280070792053686F7274204164647265737388
:104138003A000D0A3C3C4259206669727374206A41
:1041480075656765204920616D207468652046693A
:10415800727374204D65642E2E2E000D0A3C3C4D62
:1041680065642042726F6164636173742073686F61
:10417800727441646472657373206F6363757061F0
:1041880074696F6E2E2E2E000D0A46696E616C6C76
:1041980079204920616D20746865204669727374BE
:1041A800204D65647E7E7E000D0A42592066697244
:1041B8007374206A75656765204920616D2074688D
:1041C8006520466972737420486561647E7E7E004E
:1041D8000D0A3C3C42726F616463617374206865C8
:1041E8006164206F636375706174696F6E2E2E2E23
:1041F800000D0A46696E616C6C79204920616D205A
:1042080074686520466972737420486561647E7EAF
:104218007E000D0A2121456E74657220736C6565F8
:1042280070206D6F6465000D0A212157616B65640C
:104238002055702E000D0A212143757272656E7427
:104248002073686F727420416464726573732069A7
:10425800733A000D0A21214E657420776F726B2026
:104268004E554D3A3A3A3A3A3A3A3A3A3A000D0AFB
:1042780021214E6F772069732074657374696E67A6
:104288002074696D657E7E7E7E7E7E7E7E7E7E006B
:104298000D0A21214D7920706172616E74204C6F76
:1042A80073747E7E7E7E7E7E7E7E7E7E7E7E000D2A
:1042B8000A21214920616D20746865204E657720A8
:1042C8005461696C7E7E7E7E7E7E7E7E7E7E7E00F2
:1042D8000D0A21214E657420776F726B2068617317
:1042E800207374682077726F6E6720492068617642
:1042F8006520746F20676F20746F20737461727407
:104308007E7E7E7E7E7E7E7E7E7E00616D617A69A7
:104318006E672077697468696E20507265707E7E5A
:104328007E7E000D0A3C3C53656E64696E672050C2
:104338007265702E2E2E000D0A2121726574727915
:104348002074696D65733A3A3A3A3A00FEFF0D0AED
:104358004120666174616C206572726F722E205301
:10436800797374656D206D7573742062652072654C
:104378007365742E00010D0A3E3E4E6569676862DA
:104388006F72204E6F646520466F756E642E000D47
:104398000A3E3E53686F7274204164647265737399
:1043A8003A000D0A3E3E525353493A000D0A506CEA
:1043B8006561736520656E7465723A3A3A3A3A3ABD
:1043C8003A000D0A00526561647920746F205365C4
:1043D8006E64207E7E7E7E7E7E7E00ABCDEFAAAAB6
:00000001FF
