:100000000C9466000C9485000C9485000C9485007B
:100010000C9485000C9485000C9485000C9485004C
:100020000C9485000C9485000C9485000C9485003C
:100030000C9485000C9485000C9485000C948E041F
:100040000C94C1040C9485000C9485000C948500DC
:100050000C9477040C9485000C9485000C94850016
:100060000C9485000C9425010C9485000C9485005B
:100070000C9485000C9485000C9485000C948500EC
:100080000C9485000C9485000C9485000C949804C5
:100090000C9485000C9485000C9485000C948500CC
:1000A0000C9485000C9485000C9485000C948500BC
:1000B0000C9485000C94A2040C9485000C9485008B
:1000C0000C9485000C9485000C94B70411241FBE79
:1000D000CFEFD1E2DEBFCDBF12E0A0E0B2E0E2E9B7
:1000E000F8E100E00BBF02C007900D92A63EB107F9
:1000F000D9F716E0A6EEB2E001C01D92A633B10713
:10010000E1F70E94C70A0C94470C0C94000010926F
:10011000C5008093C400A1ECB0E08C9180618C9309
:100120008C9188608C93E2ECF0E080818660808323
:1001300010925C0310925D038C9180688C930895FB
:10014000FC0107C08091C00085FFFCCF81918093A6
:10015000C6006150B9F70895982F8091C00085FFBF
:10016000FCCF80E38093C6008091C00085FFFCCF68
:1001700088E78093C6008091C00085FFFCCFE92FFF
:10018000E295EF70F0E0E050FE4F80818093C60072
:100190008091C00085FFFCCFE92FF0E0EF70F07098
:1001A000E050FE4F80818093C6000895982F809183
:1001B000C00085FFFCCF9093C6000895282F809142
:1001C000C00085FFFCCF822F64E60E943B0C805D5F
:1001D0008093C6008091C00085FFFCCF822F64E62B
:1001E0000E943B0C892F6AE00E943B0C805D80934B
:1001F000C6008091C00085FFFCCF822F6AE00E947C
:100200003B0C905D9093C600089586EE92E00895B1
:1002100080915D03882311F080915C0308958091A3
:10022000C1008F778093C10010925C0310925D0330
:1002300002C08091C6008091C00087FDFACF8091F6
:10024000C10080688093C10008951F920F920FB67D
:100250000F920BB60F9211242F938F939F93AF930E
:10026000BF93EF93FF939091C60080915C03843716
:1002700028F5A82FB0E0282F2F5F9A30C9F480917D
:10028000C1008F778093C100AA51BD4F9C93E22F8C
:10029000F0E0EA51FD4F1082822F8F5FE82FF0E0EF
:1002A000EA51FD4F10828F5F80935C0381E00EC0A6
:1002B000AA51BD4F9C9320935C030AC08091C1005A
:1002C0008F778093C10081E080935C0380935D030E
:1002D000FF91EF91BF91AF919F918F912F910F90CF
:1002E0000BBE0F900FBE0F901F901895DF93CF930A
:1002F0000F92CDB7DEB710925F0310925E038FB7F7
:100300008983F89410926103109262031092630340
:1003100010926403109265031092660310926703B3
:10032000109269031092680310926B0310926A0393
:1003300089818FBF249A259A269A579A84B187601B
:1003400084B985B1836085B980E58CBD81E08DBDC0
:1003500083E480938100B59AEFE6F0E080818160CC
:10036000808380818062808380E00F90CF91DF91D5
:100370000895E5E6F0E08081806180830895E5E6F8
:10038000F0E080818F7E80831092A00085E08093D2
:10039000A10080EE8093A40083EE8093A50081E00D
:1003A000809372008FB780688FBF0895809160033B
:1003B0000895109260030895DF93CF930F92CDB705
:1003C000DEB78FB78983F8941092610310926203AD
:1003D00010926303109264031092650310926603F7
:1003E00010926703109269031092680310926B03D6
:1003F00010926A0389818FBF0F90CF91DF9108958A
:10040000809161030895DF93CF930F92CDB7DEB74C
:100410008FB78983F8941092610389818FBF0F9001
:10042000CF91DF910895809162030895DF93CF9378
:100430000F92CDB7DEB78FB78983F894109262031D
:1004400089818FBF0F90CF91DF91089580916303D1
:100450000895DF93CF930F92CDB7DEB78FB789831F
:10046000F8941092630389818FBF0F90CF91DF9131
:10047000089580916A0390916B030895DF93CF9361
:100480000F92CDB7DEB72FB72983F89490936B0303
:1004900080936A0389818FBF0F90CF91DF91089578
:1004A000DF93CF930F92CDB7DEB78FB78983F894E0
:1004B00010926B0310926A0389818FBF0F90CF91C6
:1004C000DF910895809164030895DF93CF930F9295
:1004D000CDB7DEB78FB78983F89410926403898112
:1004E0008FBF0F90CF91DF91089580916803909115
:1004F00069030895DF93CF930F92CDB7DEB72FB77F
:100500002983F894909369038093680389818FBF4E
:100510000F90CF91DF910895DF93CF930F92CDB7D6
:10052000DEB78FB78983F89410926903109268033D
:1005300089818FBF0F90CF91DF91089580916503DE
:100540000895DF93CF930F92CDB7DEB78FB789832E
:10055000F8941092650389818FBF0F90CF91DF913E
:100560000895809166030895DF93CF930F92CDB7DE
:10057000DEB78FB78983F8941092660389818FBFA5
:100580000F90CF91DF910895809167030895DF93D5
:10059000CF930F92CDB7DEB78FB78983F8941092BF
:1005A000670389818FBF0F90CF91DF910895DF930B
:1005B000CF930F92CDB7DEB780689FB79983F89439
:1005C00028988EBD0DB407FEFDCF8EB58EBD0DB43F
:1005D00007FEFDCF8EB5289A99819FBF0F90CF91CE
:1005E000DF910895DF93CF930F92CDB7DEB7806C84
:1005F0009FB79983F89428988EBD0DB407FEFDCF60
:100600008EB56EBD0DB407FEFDCF8EB5289A8981DB
:100610008FBF0F90CF91DF910895FF920F931F939B
:10062000062FF42E0E94D702082310E002C0159571
:100630000795FA94E2F7802F1F910F91FF9008958C
:10064000EF92FF920F931F93DF93CF930F92CDB74B
:10065000DEB7182F062FE42EF22E0E94D702282F85
:10066000106C8FB78983F89428981EBD0DB407FECF
:10067000FDCF8EB58F2D90E002C0880F991FEA94B0
:10068000E2F7802300950223802B8EBD0DB407FE78
:10069000FDCF8EB5289A89818FBF0F90CF91DF91C2
:1006A0001F910F91FF90EF900895DF93CF930F92DA
:1006B000CDB7DEB7FC018FB78983F894289880E224
:1006C0008EBD0DB407FEFDCF8EB58EBD0DB407FEF9
:1006D000FDCF9EB5892F83508D3760F590839EBDE9
:1006E0000DB407FEFDCFDF01119620E030E08EB59E
:1006F0008EBD8D932827022E2295207F2025032E44
:10070000322F22952F700226269532272327220F7B
:10071000220F220F20250DB407FEFDCF915039F78F
:100720008EB5E058FF4F8193289A232B41F481E046
:10073000808306C0289A1082E058FF4F11921082E1
:1007400089818FBF0F90CF91DF910895DF93CF9371
:100750000F92CDB7DEB7FC016F778FB78983F8941E
:10076000289880E68EBD0DB407FEFDCF8EB56EBD18
:100770000DB407FEFDCF8EB581918EBD61500DB4D5
:1007800007FEFDCF8EB56623B9F7289A89818FBF02
:100790000F90CF91DF910895DF93CF930F92CDB754
:1007A000DEB7982FFA018FB78983F89428981EBC7A
:1007B0000DB407FEFDCF8EB59EBD0DB407FEFDCF77
:1007C0008EB51EBC0DB407FEFDCF8EB58083615083
:1007D00011F03196F6CF289A89818FBF0F90CF9173
:1007E000DF910895DF93CF930F92CDB7DEB7982FA7
:1007F000FA018FB78983F894289880E48EBD0DB4F0
:1008000007FEFDCF8EB59EBD0DB407FEFDCF8EB5A4
:1008100081918EBD0DB407FEFDCF8EB56150C1F73D
:10082000289A89818FBF0F90CF91DF910895DF9330
:10083000CF930F92CDB7DEB7982FDB0182E08A9578
:10084000F1F78FB78983F894289880E48EBD0DB4B2
:1008500007FEFDCF9EBD0DB407FEFDCF8C918EBD72
:100860000DB407FEFDCF942FFD0107C081818EBD21
:100870000DB407FEFDCF8EB581939150B9F741506D
:10088000FD01E40FF11D1EBC0DB407FEFDCF8EB5BA
:100890008083289A89818FBF0F90CF91DF9108952F
:1008A000DF93CF930F92CDB7DEB720915E033091E7
:1008B0005F0340E050E0A901332722278FB78983E7
:1008C000F894809184009091850069816FBFA0E0C9
:1008D000B0E0282B392B4A2B5B2B56954795379543
:1008E0002795B901CA010F90CF91DF9108951F920A
:1008F0000F920FB60F9211248F939F9380915E03F6
:1009000090915F03019690935F0380935E039F91A4
:100910008F910F900FBE0F901F9018951F920F92FE
:100920000FB60F9211240F900FBE0F901F901895C5
:100930001F920F920FB60F9211240F900FBE0F90BF
:100940001F9018951F920F920FB60F9211248F933C
:1009500080EE8093A40083EE8093A50081E08093D5
:1009600060038F910F900FBE0F901F9018951F92EC
:100970000F920FB60F9211240F900FBE0F901F9081
:1009800018951F920F920FB60F920BB60F9211246B
:100990000F931F932F933F934F935F936F937F9387
:1009A0008F939F93AF93BF93EF93FF93DF93CF9377
:1009B0000F92CDB7DEB780915E0390915F03A0E008
:1009C000B0E09C0111270027809184009091850060
:1009D000A0E0B0E0082B192B2A2B3B2B28988FE89E
:1009E0008EBD36952795179507950DB407FEFDCF5B
:1009F0008EB58EBD0DB407FEFDCF9EB5289A92FF31
:100A00001DC0809164038F5F80936403E09168034D
:100A1000F0916903309709F45FC0289880E28EBD99
:100A20000DB407FEFDCF8EB58EBD0DB407FEFDCF14
:100A30004EB5289AC901B80109954EC093FF10C060
:100A4000809163038F5F80936303E0916A03F09169
:100A50006B03309709F440C0C901B80109953CC047
:100A600096FF06C0809162038F5F8093620334C05B
:100A700091FF06C0809166038F5F809366032CC050
:100A800090FF06C0809167038F5F8093670324C047
:100A900097FF1DC08EE00E94D702982F8FB78983E1
:100AA000F89428988EEC8EBD0DB407FEFDCF8EB560
:100AB0009F779EBD0DB407FEFDCF8EB5289A898124
:100AC0008FBF809161038F5F8093610305C0809128
:100AD00065038F5F809365030F90CF91DF91FF9146
:100AE000EF91BF91AF919F918F917F916F915F91A6
:100AF0004F913F912F911F910F910F900BBE0F902F
:100B00000FBE0F901F9018950895AC0184E860E126
:100B10000E94CC0308951F93CF93DF93EB01AFE6C0
:100B2000B3E0FC0180E101900D928150E1F710915A
:100B30007F0380916D03882349F083E86EE673E0BC
:100B400042E10E94170410926D0306C084E86FE62C
:100B500073E041E10E941704209741F0DE01EFE6C7
:100B6000F3E080E101900D928150E1F710937F0353
:100B70008AE38A95F1F7DF91CF911F9108951F9332
:100B800080911102882319F020E933E002C020E8A7
:100B900033E010916E0380E180936E03AFE6B3E023
:100BA000F90101900D928150E1F783E861E14EE691
:100BB00053E00E94F20310936E0381E080936D0373
:100BC0001F910895FF920F931F93DF93CF93CDB79B
:100BD000DEB760970FB6F894DEBF0FBECDBF9C01A5
:100BE000F62E042F0097E9F010926C0389E08093B1
:100BF0001102A0E8B3E0F90180E101900D9281506B
:100C0000E1F780E180936E03AFE6B3E0F901019074
:100C10000D928150E1F783E861E14EE653E00E94D6
:100C2000F203002321F0083009F063C017C080915F
:100C30001102883009F04BC080E180936E03AFE66B
:100C4000B3E0E0E8F3E001900D928150E1F783E832
:100C500061E14EE653E00E94F20339C08091110237
:100C60008830A9F110E110936E0380916C03882302
:100C7000E1F410926E0380E880937F0381E080931B
:100C80006D03CE01019660E070E00E948B05109329
:100C90006E0383E861E04EE653E00E94F20384E8CD
:100CA00060E140E953E00E94CC03AFE6B3E0E0E945
:100CB000F3E080E101900D928150E1F783E861E17A
:100CC0004EE653E00E94F20381E080936C030093B0
:100CD0001102FF2019F080E2F81659F4802F8F29B5
:100CE00080936E03806880937F0381E080936D031F
:100CF00001C080E060960FB6F894DEBF0FBECDBF96
:100D0000CF91DF911F910F91FF9008958EE268E0DF
:100D100043E00E940D0308951F932D988AEB91E004
:100D20000197F1F72D9882E08A95F1F72D9A10E05E
:100D300081E06FE140E00E940D031F5F1B3011F462
:100D400085E805C08830A1F78093350680E01F91C3
:100D5000089581E06FE140E00E940D0308950F9334
:100D60001F93CF93DF93082FEB01142F85508B3700
:100D700010F082E431C081E06FE140E00E940D0399
:100D8000893111F084E428C00E9429022C9A2C9801
:100D9000CE01602F0E94A6030E9426028823E1F361
:100DA00082E060EE45E00E940D038823A1F08330CD
:100DB00011F08EE401C08DE4112371F081E06FE148
:100DC00040E00E940D038931C9F711500E942902A9
:100DD0002C9A2C98E1CF80E4DF91CF911F910F9155
:100DE00008951F93CF93DF93182FEB0187FF02C065
:100DF00082E410C081E06FE140E00E940D03893081
:100E000011F084E407C02C9A2C98CE01612F0E9427
:100E1000A60380E4DF91CF911F9108951C9902C031
:100E200080E408952C9886E596E00197F1F781E03B
:100E30006FE140E00E940D03883091F383E4089550
:100E400083E067E040E00E940D03089581E160E2E5
:100E500045E00E940D03882311F08BE408958AE495
:100E6000089581E160E144E00E940D03089581E16D
:100E70006FE040E00E940D030895CF93DF93EC01F3
:100E800081E06FE140E00E940D03863021F0813067
:100E900011F084E407C086E06FE140E00E940D039A
:100EA000888380E4DF91CF91089589E06FE040E08E
:100EB0000E940D03089588E060E645E00E940D035E
:100EC00008958EE268E043E020E00E942003089548
:100ED000882329F084E060E245E021E004C084E05A
:100EE00060E245E020E00E94200308952C988EE007
:100EF0008A95F1F782E06FE140E023E00E94200351
:100F000082E08A95F1F708951C9B02C080E4089561
:100F10000E94760781E06FE140E00E940D03883077
:100F200011F083E408952C9A80E408950F931F93A1
:100F3000082F883051F0863041F0893031F0863109
:100F400021F0893111F082E44BC01C9B02C084E483
:100F500047C081E06FE140E00E940D03182F8150EF
:100F6000823008F43AC01131C1F11231B1F10117E8
:100F7000B1F1083019F40E94760726C0093139F41E
:100F8000163191F482E06FE140E029E008C00631BB
:100F900059F4193149F482E06FE140E026E00E9403
:100FA000200382E08A95F1F782E06FE140E0202F94
:100FB0000E942003183029F48BE491E00197F1F7A7
:100FC00003C082E08A95F1F781E06FE140E00E9482
:100FD0000D03801721F083E403C085E401C080E4A1
:100FE0001F910F91089581E06FE140E00E940D0391
:100FF0008850823010F084E4089588E160E847E08A
:1010000021E00E9420038DE38A95F1F788E160E8F2
:1010100047E00E940D03882311F480E4089583E4DF
:1010200008950F931F93082F162F663010F082E457
:101030001BC083E067E040E00E940D03811799F038
:10104000002329F483E068E043E021E004C083E06A
:1010500068E043E020E00E94200383E067E040E096
:10106000212F0E94200380E41F910F9108951F9368
:10107000162F603110F082E418C01C9B02C084E47B
:1010800014C0882329F081E160E144E021E004C03C
:1010900081E160E144E020E00E94200381E16FE013
:1010A00040E0212F0E94200380E41F9108951F93A8
:1010B000282F162F833098F4603188F41C9B02C0CF
:1010C00084E40EC088E060E645E00E94200389E0E9
:1010D0006FE040E0212F0E94200380E401C082E401
:1010E0001F9108950F931F93082F162F1C9B02C06A
:1010F00084E42AC08CE260EF44E020E00E942003F8
:10110000212F30E02873307083E0359527958A953C
:10111000E1F78CE26EE041E00E942003212F22954E
:101120002695269523708FE26FE040E00E94200311
:101130008DE2602F0E94F20217708EE267E040E0BD
:10114000212F0E94200380E41F910F910895AF92F8
:10115000BF92CF92DF92EF92FF920F931F938C0179
:101160007C010894E11CF11C8BE2F80160810E9473
:10117000F20267010894C11CD11C8AE2F801618166
:101180000E94F20256010894A11CB11C89E2F701E9
:1011900061810E94F20275010894E11CF11C88E251
:1011A000F60161810E94F20287010F5F1F4F87E203
:1011B000F50161810E94F20286E2F70161810E94DD
:1011C000F20285E2F80161810E94F20284E20F5F7F
:1011D0001F4FF80161810E94F2021F910F91FF9051
:1011E000EF90DF90CF90BF90AF9008951F93682F3E
:1011F000192F80E20E94F20281E2612F0E94F20226
:101200001F9108951F93682F192F82E20E94F20206
:1012100083E2612F0E94F2021F91089583E060E350
:1012200044E020E00E94200381E061E00E94110878
:101230008EE260EC46E020E00E9420038EE260E255
:1012400045E021E00E9420038CE060E847E021E0D7
:101250000E94200384E062E041E021E00E9420033C
:101260008EE068E00E94F20284E060E245E021E066
:101270000E94200384E060E446E021E00E94200315
:1012800008951F93982F162F1C9B02C084E40BC057
:1012900085E0692F0E94F20285E060E847E0212F97
:1012A0000E94200380E41F910895EF92FF920F9314
:1012B0001F937C018BE20E94D702F70181938F017B
:1012C0008AE20E94D702F701818378010894E11C29
:1012D000F11C89E20E94D702F801818387010F5F28
:1012E0001F4F88E20E94D702F7018183780108949A
:1012F000E11CF11C87E20E94D702F801818387017B
:101300000F5F1F4F86E20E94D702F701818385E2BB
:101310000E94D702F801818384E20E94D7020F5F06
:101320001F4FF80181831F910F91FF90EF90089557
:101330001F9381E20E94D702182F81E20E94D702F8
:10134000512F40E0282F30E0242B352BC9011F916D
:1013500008951F9383E20E94D702182F82E20E9411
:10136000D702512F40E0282F30E0242B352BC90124
:101370001F91089581E06FE140E00E940D038930E4
:1013800011F084E4089586E00E9496078034A9F461
:1013900088E060E847E021E00E94200382E091E0DD
:1013A0000197F1F781E00E94D70287FF06C086FD12
:1013B00002C088E4089587E4089583E40895CF93F4
:1013C000DF93EC0181E06FE140E00E940D03863085
:1013D00021F0813011F084E40DC087E060E00E94CC
:1013E000F20282E091E00197F1F787E00E94D702D4
:1013F000888380E4DF91CF9108951F93182F8CE0AC
:101400000E94D702682F607C612B8CE00E94F20260
:10141000112311F0143059F486E163E040E023E039
:101420000E94200387E164E042E020E00AC086E1F8
:1014300063E040E022E00E94200387E164E042E0B4
:1014400021E00E94200380E01F91089585E00E9422
:10145000D702089583E10E94D70208951F93182FA1
:1014600084E167E040E021E00E942003812F8E5656
:101470008D3310F082E422C01C9B02C084E41EC0A5
:1014800083E10E94D7028117C1F083E1612F0E949E
:10149000F20281E06FE140E00E940D03863011F01E
:1014A000893021F484E191E00197F1F783E10E9412
:1014B000D702811711F083E401C080E41F910895E1
:1014C0000F931F930CEA13E0C8010197F1F70E94F4
:1014D0008C0682E06FE140E023E00E942003C80117
:1014E0000197F1F781E06FE140E00E940D03883041
:1014F00011F083E418C08CE10E94D7028093A0030E
:10150000873081F48DE10E94D702813059F48EE159
:101510000E94D7028F3131F48EE06FEF0E94F20209
:1015200080E401C081E41F910F91089581E06FE193
:1015300040E00E940D03893011F084E408958BE1AE
:1015400060E847E021E00E9420038AE160E847E08C
:1015500021E00E9420030E94C70284E191E00197EC
:10156000F1F70E94C402882381F08BE160E847E034
:101570000E940D03882349F48AE160E847E00E9455
:101580000D03882311F480E4089583E40895DF9225
:10159000EF92FF920F931F93CF93DF9381E080939D
:1015A000340681E68093A20388E88093A3038FEA40
:1015B0008093A5038EEB8093A6038CED8093A70305
:1015C0008CEA8093A8038DEA8093A9038AEB809329
:1015D000AA0321E234E030932A062093290687EA01
:1015E00095E090932C0680932B0630932E06209343
:1015F0002D069093300680932F0684E08093310669
:10160000109232061092330683E00E9487000E94F7
:101610007601882359F50E940E090E94600A8034E1
:1016200029F58EE60E942E0A803401F580E00E94A2
:10163000FD0980EC61E00E9441098DEA9AEB0E946D
:10164000F6088FEA9EEB0E94020980E00E94610783
:101650008AEE62EE0E94720881E00E9468078DEFB8
:101660009BE00E943E028FE00E94D70286E10E942A
:101670009607803429F082E192E067E20E94A000A0
:1016800078945F988091A1038093A403EBEAF3E040
:1016900081E4819394E0EF30F907D9F70E94BF010C
:1016A00001E214E0C7EAD5E094E0D92EEE24E394F9
:1016B00082E4F82E40913206442331F12E98209195
:1016C0002F063091300680912B0690912C0628171A
:1016D000390749F48091290690912A0690933006A3
:1016E00080932F0606C02E573F4F3093300620932D
:1016F0002F06F894809131068F5F80933106415018
:101700004093320678942E9A809133068823E9F02C
:10171000F89410932A0600932906D0932C06C093C0
:101720002B0610932E0600932D06D0933006C093FF
:101730002F06D0923106109232061092330689E3BA
:1017400092E066E10E94A00078942E9A0E94D60151
:10175000882309F4AFCF0E94D9018091A103883C6E
:1017600088F01092A1038FE492E069E40E94A00047
:101770000E94B901EBEAF3E0F19284E0EF30F80760
:10178000D9F70CC08F5F8093A10388E992E06AE1EA
:101790000E94A0008091A1030E94DE002E988091FB
:1017A000A1038093A40389E10E949607803489F401
:1017B000109234068DE662EA73E041E00E94AF06C3
:1017C000803419F482EB92E002C08FEB92E06DE07E
:1017D00003C08CEC92E06AE10E94A00086E10E94C6
:1017E0009607803429F082E192E067E20E94A0002F
:1017F000E09234060E940F015DCF80913406882369
:10180000C9F180913106882321F481E08093330669
:10181000089580912D0690912E060E945503E09127
:101820002D06F0912E06EF57FF4F8081E158F040D2
:10183000882301F180912B0690912C06E817F90777
:1018400049F48091290690912A0690932E06809360
:101850002D0606C0EE57FF4FF0932E06E0932D069F
:1018600080913106815080933106809132068F5FDE
:10187000809332060895991B79E004C0991F96174A
:1018800008F0961B881F7A95C9F780950895F894FB
:02189000FFCF88
:1018920030313233343536373839414243444546A4
:1018A20000090D0A4120666174616C206572726FD5
:1018B200722E2053797374656D206D757374206276
:1018C200652072657365742E000D0A5258204275A8
:1018D20066666572204F766572666C6F7721000DC1
:1018E2000A323030207061636B6167657320686112
:1018F200732073656E742066696E69736821212195
:101902000D0A47697665206120706F7765722D6FC9
:101912006E20726573657420746F207265737461D2
:1019220072742121210D0A000D0A3C2D2D2D5478AF
:10193200204D65737361676520436F756E746572C0
:101942003A000D0A3C2D2D2D5458204F4B2E000DE0
:101952000A5458204661696C656421000D0A53746B
:10196200617465207472616E736974696F6E20664A
:0619720061696C65640070
:00000001FF
